{
  "_format": "hh-sol-artifact-1",
  "contractName": "BattlePetsNFT",
  "sourceName": "contracts/BattlePetsNFT.sol",
  "abi": [
    {
      "inputs": [
        {
          "internalType": "address",
          "name": "_gameToken",
          "type": "address"
        }
      ],
      "stateMutability": "nonpayable",
      "type": "constructor"
    },
    {
      "anonymous": false,
      "inputs": [
        {
          "indexed": true,
          "internalType": "address",
          "name": "owner",
          "type": "address"
        },
        {
          "indexed": true,
          "internalType": "address",
          "name": "approved",
          "type": "address"
        },
        {
          "indexed": true,
          "internalType": "uint256",
          "name": "tokenId",
          "type": "uint256"
        }
      ],
      "name": "Approval",
      "type": "event"
    },
    {
      "anonymous": false,
      "inputs": [
        {
          "indexed": true,
          "internalType": "address",
          "name": "owner",
          "type": "address"
        },
        {
          "indexed": true,
          "internalType": "address",
          "name": "operator",
          "type": "address"
        },
        {
          "indexed": false,
          "internalType": "bool",
          "name": "approved",
          "type": "bool"
        }
      ],
      "name": "ApprovalForAll",
      "type": "event"
    },
    {
      "anonymous": false,
      "inputs": [
        {
          "indexed": false,
          "internalType": "uint256",
          "name": "_fromTokenId",
          "type": "uint256"
        },
        {
          "indexed": false,
          "internalType": "uint256",
          "name": "_toTokenId",
          "type": "uint256"
        }
      ],
      "name": "BatchMetadataUpdate",
      "type": "event"
    },
    {
      "anonymous": false,
      "inputs": [
        {
          "indexed": false,
          "internalType": "uint256",
          "name": "_tokenId",
          "type": "uint256"
        }
      ],
      "name": "MetadataUpdate",
      "type": "event"
    },
    {
      "anonymous": false,
      "inputs": [
        {
          "indexed": true,
          "internalType": "address",
          "name": "previousOwner",
          "type": "address"
        },
        {
          "indexed": true,
          "internalType": "address",
          "name": "newOwner",
          "type": "address"
        }
      ],
      "name": "OwnershipTransferred",
      "type": "event"
    },
    {
      "anonymous": false,
      "inputs": [
        {
          "indexed": true,
          "internalType": "address",
          "name": "owner",
          "type": "address"
        },
        {
          "indexed": true,
          "internalType": "uint256",
          "name": "tokenId",
          "type": "uint256"
        },
        {
          "indexed": false,
          "internalType": "uint8",
          "name": "rarity",
          "type": "uint8"
        }
      ],
      "name": "PetMinted",
      "type": "event"
    },
    {
      "anonymous": false,
      "inputs": [
        {
          "indexed": true,
          "internalType": "uint256",
          "name": "tokenId",
          "type": "uint256"
        },
        {
          "indexed": false,
          "internalType": "uint16",
          "name": "attack",
          "type": "uint16"
        },
        {
          "indexed": false,
          "internalType": "uint16",
          "name": "defense",
          "type": "uint16"
        },
        {
          "indexed": false,
          "internalType": "uint16",
          "name": "speed",
          "type": "uint16"
        },
        {
          "indexed": false,
          "internalType": "uint16",
          "name": "hp",
          "type": "uint16"
        }
      ],
      "name": "PetTrained",
      "type": "event"
    },
    {
      "anonymous": false,
      "inputs": [
        {
          "indexed": true,
          "internalType": "uint256",
          "name": "tokenId",
          "type": "uint256"
        },
        {
          "indexed": false,
          "internalType": "uint8",
          "name": "newLevel",
          "type": "uint8"
        },
        {
          "indexed": false,
          "internalType": "uint8",
          "name": "newSkill",
          "type": "uint8"
        }
      ],
      "name": "PetUpgraded",
      "type": "event"
    },
    {
      "anonymous": false,
      "inputs": [
        {
          "indexed": true,
          "internalType": "address",
          "name": "from",
          "type": "address"
        },
        {
          "indexed": true,
          "internalType": "address",
          "name": "to",
          "type": "address"
        },
        {
          "indexed": true,
          "internalType": "uint256",
          "name": "tokenId",
          "type": "uint256"
        }
      ],
      "name": "Transfer",
      "type": "event"
    },
    {
      "inputs": [
        {
          "internalType": "address",
          "name": "to",
          "type": "address"
        },
        {
          "internalType": "uint256",
          "name": "tokenId",
          "type": "uint256"
        }
      ],
      "name": "approve",
      "outputs": [],
      "stateMutability": "nonpayable",
      "type": "function"
    },
    {
      "inputs": [
        {
          "internalType": "address",
          "name": "owner",
          "type": "address"
        }
      ],
      "name": "balanceOf",
      "outputs": [
        {
          "internalType": "uint256",
          "name": "",
          "type": "uint256"
        }
      ],
      "stateMutability": "view",
      "type": "function"
    },
    {
      "inputs": [],
      "name": "gameToken",
      "outputs": [
        {
          "internalType": "contract GameToken",
          "name": "",
          "type": "address"
        }
      ],
      "stateMutability": "view",
      "type": "function"
    },
    {
      "inputs": [
        {
          "internalType": "uint256",
          "name": "tokenId",
          "type": "uint256"
        }
      ],
      "name": "getApproved",
      "outputs": [
        {
          "internalType": "address",
          "name": "",
          "type": "address"
        }
      ],
      "stateMutability": "view",
      "type": "function"
    },
    {
      "inputs": [
        {
          "internalType": "uint256",
          "name": "tokenId",
          "type": "uint256"
        }
      ],
      "name": "getPet",
      "outputs": [
        {
          "components": [
            {
              "internalType": "uint16",
              "name": "attack",
              "type": "uint16"
            },
            {
              "internalType": "uint16",
              "name": "defense",
              "type": "uint16"
            },
            {
              "internalType": "uint16",
              "name": "speed",
              "type": "uint16"
            },
            {
              "internalType": "uint16",
              "name": "hp",
              "type": "uint16"
            },
            {
              "internalType": "uint8",
              "name": "level",
              "type": "uint8"
            },
            {
              "internalType": "uint8",
              "name": "rarity",
              "type": "uint8"
            },
            {
              "internalType": "uint8[]",
              "name": "skills",
              "type": "uint8[]"
            },
            {
              "internalType": "uint256",
              "name": "lastTrainingTime",
              "type": "uint256"
            },
            {
              "internalType": "uint256",
              "name": "lastBattleTime",
              "type": "uint256"
            }
          ],
          "internalType": "struct BattlePetsNFT.Pet",
          "name": "",
          "type": "tuple"
        }
      ],
      "stateMutability": "view",
      "type": "function"
    },
    {
      "inputs": [
        {
          "internalType": "address",
          "name": "owner",
          "type": "address"
        },
        {
          "internalType": "address",
          "name": "operator",
          "type": "address"
        }
      ],
      "name": "isApprovedForAll",
      "outputs": [
        {
          "internalType": "bool",
          "name": "",
          "type": "bool"
        }
      ],
      "stateMutability": "view",
      "type": "function"
    },
    {
      "inputs": [],
      "name": "mintPet",
      "outputs": [
        {
          "internalType": "uint256",
          "name": "",
          "type": "uint256"
        }
      ],
      "stateMutability": "nonpayable",
      "type": "function"
    },
    {
      "inputs": [],
      "name": "name",
      "outputs": [
        {
          "internalType": "string",
          "name": "",
          "type": "string"
        }
      ],
      "stateMutability": "view",
      "type": "function"
    },
    {
      "inputs": [],
      "name": "owner",
      "outputs": [
        {
          "internalType": "address",
          "name": "",
          "type": "address"
        }
      ],
      "stateMutability": "view",
      "type": "function"
    },
    {
      "inputs": [
        {
          "internalType": "uint256",
          "name": "tokenId",
          "type": "uint256"
        }
      ],
      "name": "ownerOf",
      "outputs": [
        {
          "internalType": "address",
          "name": "",
          "type": "address"
        }
      ],
      "stateMutability": "view",
      "type": "function"
    },
    {
      "inputs": [
        {
          "internalType": "uint256",
          "name": "",
          "type": "uint256"
        }
      ],
      "name": "pets",
      "outputs": [
        {
          "internalType": "uint16",
          "name": "attack",
          "type": "uint16"
        },
        {
          "internalType": "uint16",
          "name": "defense",
          "type": "uint16"
        },
        {
          "internalType": "uint16",
          "name": "speed",
          "type": "uint16"
        },
        {
          "internalType": "uint16",
          "name": "hp",
          "type": "uint16"
        },
        {
          "internalType": "uint8",
          "name": "level",
          "type": "uint8"
        },
        {
          "internalType": "uint8",
          "name": "rarity",
          "type": "uint8"
        },
        {
          "internalType": "uint256",
          "name": "lastTrainingTime",
          "type": "uint256"
        },
        {
          "internalType": "uint256",
          "name": "lastBattleTime",
          "type": "uint256"
        }
      ],
      "stateMutability": "view",
      "type": "function"
    },
    {
      "inputs": [
        {
          "internalType": "uint256",
          "name": "",
          "type": "uint256"
        }
      ],
      "name": "rarityChances",
      "outputs": [
        {
          "internalType": "uint8",
          "name": "",
          "type": "uint8"
        }
      ],
      "stateMutability": "view",
      "type": "function"
    },
    {
      "inputs": [],
      "name": "renounceOwnership",
      "outputs": [],
      "stateMutability": "nonpayable",
      "type": "function"
    },
    {
      "inputs": [
        {
          "internalType": "address",
          "name": "from",
          "type": "address"
        },
        {
          "internalType": "address",
          "name": "to",
          "type": "address"
        },
        {
          "internalType": "uint256",
          "name": "tokenId",
          "type": "uint256"
        }
      ],
      "name": "safeTransferFrom",
      "outputs": [],
      "stateMutability": "nonpayable",
      "type": "function"
    },
    {
      "inputs": [
        {
          "internalType": "address",
          "name": "from",
          "type": "address"
        },
        {
          "internalType": "address",
          "name": "to",
          "type": "address"
        },
        {
          "internalType": "uint256",
          "name": "tokenId",
          "type": "uint256"
        },
        {
          "internalType": "bytes",
          "name": "data",
          "type": "bytes"
        }
      ],
      "name": "safeTransferFrom",
      "outputs": [],
      "stateMutability": "nonpayable",
      "type": "function"
    },
    {
      "inputs": [
        {
          "internalType": "address",
          "name": "operator",
          "type": "address"
        },
        {
          "internalType": "bool",
          "name": "approved",
          "type": "bool"
        }
      ],
      "name": "setApprovalForAll",
      "outputs": [],
      "stateMutability": "nonpayable",
      "type": "function"
    },
    {
      "inputs": [
        {
          "internalType": "uint256",
          "name": "_cost",
          "type": "uint256"
        }
      ],
      "name": "setTrainingCost",
      "outputs": [],
      "stateMutability": "nonpayable",
      "type": "function"
    },
    {
      "inputs": [
        {
          "internalType": "uint256",
          "name": "_cost",
          "type": "uint256"
        }
      ],
      "name": "setUpgradeCost",
      "outputs": [],
      "stateMutability": "nonpayable",
      "type": "function"
    },
    {
      "inputs": [
        {
          "internalType": "bytes4",
          "name": "interfaceId",
          "type": "bytes4"
        }
      ],
      "name": "supportsInterface",
      "outputs": [
        {
          "internalType": "bool",
          "name": "",
          "type": "bool"
        }
      ],
      "stateMutability": "view",
      "type": "function"
    },
    {
      "inputs": [],
      "name": "symbol",
      "outputs": [
        {
          "internalType": "string",
          "name": "",
          "type": "string"
        }
      ],
      "stateMutability": "view",
      "type": "function"
    },
    {
      "inputs": [
        {
          "internalType": "uint256",
          "name": "tokenId",
          "type": "uint256"
        }
      ],
      "name": "tokenURI",
      "outputs": [
        {
          "internalType": "string",
          "name": "",
          "type": "string"
        }
      ],
      "stateMutability": "view",
      "type": "function"
    },
    {
      "inputs": [
        {
          "internalType": "uint256",
          "name": "tokenId",
          "type": "uint256"
        }
      ],
      "name": "trainPet",
      "outputs": [],
      "stateMutability": "nonpayable",
      "type": "function"
    },
    {
      "inputs": [],
      "name": "trainingCost",
      "outputs": [
        {
          "internalType": "uint256",
          "name": "",
          "type": "uint256"
        }
      ],
      "stateMutability": "view",
      "type": "function"
    },
    {
      "inputs": [
        {
          "internalType": "address",
          "name": "from",
          "type": "address"
        },
        {
          "internalType": "address",
          "name": "to",
          "type": "address"
        },
        {
          "internalType": "uint256",
          "name": "tokenId",
          "type": "uint256"
        }
      ],
      "name": "transferFrom",
      "outputs": [],
      "stateMutability": "nonpayable",
      "type": "function"
    },
    {
      "inputs": [
        {
          "internalType": "address",
          "name": "newOwner",
          "type": "address"
        }
      ],
      "name": "transferOwnership",
      "outputs": [],
      "stateMutability": "nonpayable",
      "type": "function"
    },
    {
      "inputs": [],
      "name": "upgradeCost",
      "outputs": [
        {
          "internalType": "uint256",
          "name": "",
          "type": "uint256"
        }
      ],
      "stateMutability": "view",
      "type": "function"
    },
    {
      "inputs": [
        {
          "internalType": "uint256",
          "name": "tokenId",
          "type": "uint256"
        }
      ],
      "name": "upgradePet",
      "outputs": [],
      "stateMutability": "nonpayable",
      "type": "function"
    },
    {
      "inputs": [
        {
          "internalType": "address",
          "name": "",
          "type": "address"
        }
      ],
      "name": "userPetCount",
      "outputs": [
        {
          "internalType": "uint256",
          "name": "",
          "type": "uint256"
        }
      ],
      "stateMutability": "view",
      "type": "function"
    }
  ],
  "bytecode": "0x61012060405260326080908152601e60a052600f60c052600460e0526001610100526200003190600990600562000176565b50678ac7230489e80000600d556802b5e3af16b1880000600e553480156200005857600080fd5b5060405162002ada38038062002ada8339810160408190526200007b9162000227565b6040518060400160405280600b81526020016a426174746c65205065747360a81b81525060405180604001604052806005815260200164425045545360d81b8152508160009081620000ce9190620002fe565b506001620000dd8282620002fe565b505050620000fa620000f46200012060201b60201c565b62000124565b600c80546001600160a01b0319166001600160a01b0392909216919091179055620003ca565b3390565b600780546001600160a01b038381166001600160a01b0319831681179093556040519116919082907f8be0079c531659141344cd1fd0a4f28419497f9722a3daafe3b4186f6b6457e090600090a35050565b600183019183908215620001fe5791602002820160005b83821115620001cd57835183826101000a81548160ff021916908360ff16021790555092602001926001016020816000010492830192600103026200018d565b8015620001fc5782816101000a81549060ff0219169055600101602081600001049283019260010302620001cd565b505b506200020c92915062000210565b5090565b5b808211156200020c576000815560010162000211565b6000602082840312156200023a57600080fd5b81516001600160a01b03811681146200025257600080fd5b9392505050565b634e487b7160e01b600052604160045260246000fd5b600181811c908216806200028457607f821691505b602082108103620002a557634e487b7160e01b600052602260045260246000fd5b50919050565b601f821115620002f957600081815260208120601f850160051c81016020861015620002d45750805b601f850160051c820191505b81811015620002f557828155600101620002e0565b5050505b505050565b81516001600160401b038111156200031a576200031a62000259565b62000332816200032b84546200026f565b84620002ab565b602080601f8311600181146200036a5760008415620003515750858301515b600019600386901b1c1916600185901b178555620002f5565b600085815260208120601f198616915b828110156200039b578886015182559484019460019091019084016200037a565b5085821015620003ba5787850151600019600388901b60f8161c191681555b5050505050600190811b01905550565b61270080620003da6000396000f3fe608060405234801561001057600080fd5b50600436106101c45760003560e01c806373e0bf1b116100f9578063bbadc2f211610097578063ce66f3b511610071578063ce66f3b5146103c5578063cfb869bf146103d8578063e985e9c514610491578063f2fde38b146104a457600080fd5b8063bbadc2f21461038c578063c3dfdae61461039f578063c87b56dd146103b257600080fd5b806395d89b41116100d357806395d89b4114610356578063a22cb4651461035e578063a4a5f77314610371578063b88d4fde1461037957600080fd5b806373e0bf1b14610317578063760cfcce146103205780638da5cb5b1461034557600080fd5b806342842e0e11610166578063701a19fd11610140578063701a19fd146102e057806370a08231146102e9578063715018a6146102fc578063715223791461030457600080fd5b806342842e0e1461029a57806359d55194146102ad5780636352211e146102cd57600080fd5b8063095ea7b3116101a2578063095ea7b31461023157806323b872dd146102465780633b1d467e146102595780633f324be01461026c57600080fd5b806301ffc9a7146101c957806306fdde03146101f1578063081812fc14610206575b600080fd5b6101dc6101d7366004612041565b6104b7565b60405190151581526020015b60405180910390f35b6101f96104c8565b6040516101e891906120ae565b6102196102143660046120c1565b61055a565b6040516001600160a01b0390911681526020016101e8565b61024461023f3660046120f6565b610581565b005b610244610254366004612120565b61069b565b6102446102673660046120c1565b6106cc565b61028c61027a36600461215c565b600b6020526000908152604090205481565b6040519081526020016101e8565b6102446102a8366004612120565b610a59565b6102c06102bb3660046120c1565b610a74565b6040516101e891906121b5565b6102196102db3660046120c1565b610b9c565b61028c600d5481565b61028c6102f736600461215c565b610bfc565b610244610c82565b6102446103123660046120c1565b610c96565b61028c600e5481565b61033361032e3660046120c1565b610ca3565b60405160ff90911681526020016101e8565b6007546001600160a01b0316610219565b6101f9610ccd565b61024461036c36600461226a565b610cdc565b61028c610ceb565b6102446103873660046122b7565b610ed6565b61024461039a3660046120c1565b610f0e565b600c54610219906001600160a01b031681565b6101f96103c03660046120c1565b610f1b565b6102446103d33660046120c1565b610f26565b6104416103e63660046120c1565b600a6020526000908152604090208054600282015460039092015461ffff808316936201000084048216936401000000008104831693600160301b82049093169260ff600160401b8304811693600160481b90930416919088565b6040805161ffff998a16815297891660208901529588169587019590955295909216606085015260ff90811660808501521660a083015260c082019290925260e0810191909152610100016101e8565b6101dc61049f366004612393565b61125d565b6102446104b236600461215c565b61128b565b60006104c282611304565b92915050565b6060600080546104d7906123c6565b80601f0160208091040260200160405190810160405280929190818152602001828054610503906123c6565b80156105505780601f1061052557610100808354040283529160200191610550565b820191906000526020600020905b81548152906001019060200180831161053357829003601f168201915b5050505050905090565b600061056582611329565b506000908152600460205260409020546001600160a01b031690565b600061058c82610b9c565b9050806001600160a01b0316836001600160a01b0316036105fe5760405162461bcd60e51b815260206004820152602160248201527f4552433732313a20617070726f76616c20746f2063757272656e74206f776e656044820152603960f91b60648201526084015b60405180910390fd5b336001600160a01b038216148061061a575061061a813361125d565b61068c5760405162461bcd60e51b815260206004820152603d60248201527f4552433732313a20617070726f76652063616c6c6572206973206e6f7420746f60448201527f6b656e206f776e6572206f7220617070726f76656420666f7220616c6c00000060648201526084016105f5565b6106968383611379565b505050565b6106a533826113e7565b6106c15760405162461bcd60e51b81526004016105f590612400565b610696838383611446565b6106d5816115aa565b6106f15760405162461bcd60e51b81526004016105f59061244d565b336106fb82610b9c565b6001600160a01b0316146107465760405162461bcd60e51b8152602060048201526012602482015271725c46f34c57f2d75073c4d4f25c5df25d5d60711b60448201526064016105f5565b6000818152600a602052604090206002015461076490610e1061248c565b4210156107a55760405162461bcd60e51b815260206004820152600f60248201526ee8aeade7bb83e586b7e58db4e4b8ad60881b60448201526064016105f5565b600d54600c546040516370a0823160e01b81523360048201526001600160a01b03909116906370a0823190602401602060405180830381865afa1580156107f0573d6000803e3d6000fd5b505050506040513d601f19601f82011682018060405250810190610814919061249f565b10156108515760405162461bcd60e51b815260206004820152600c60248201526be4bba3e5b881e4b88de8b6b360a01b60448201526064016105f5565b600c54600d546040516323b872dd60e01b815233600482015230602482015260448101919091526001600160a01b03909116906323b872dd906064016020604051808303816000875af11580156108ac573d6000803e3d6000fd5b505050506040513d601f19601f820116820180604052508101906108d091906124b8565b506000818152600a602052604090206108eb600160056115c7565b8154829060009061090190849061ffff166124d5565b92506101000a81548161ffff021916908361ffff160217905550610927600160056115c7565b8154829060029061094390849062010000900461ffff166124d5565b92506101000a81548161ffff021916908361ffff160217905550610969600160036115c7565b81548290600490610987908490640100000000900461ffff166124d5565b92506101000a81548161ffff021916908361ffff1602179055506109ad6005600f6115c7565b815482906006906109ca908490600160301b900461ffff166124d5565b82546101009290920a61ffff8181021990931691831602179091554260028401558254604080518284168152620100008304841660208201526401000000008304841691810191909152600160301b90910490911660608201528391507f2f9429c6e079b9b3cf293f67037a348e9eb42babb02df76e1ff68fe2af6c7cf5906080015b60405180910390a25050565b61069683838360405180602001604052806000815250610ed6565b610a7c611f25565b610a85826115aa565b610aa15760405162461bcd60e51b81526004016105f59061244d565b6000828152600a6020908152604091829020825161012081018452815461ffff80821683526201000082048116838601526401000000008204811683870152600160301b820416606083015260ff600160401b820481166080840152600160481b9091041660a08201526001820180548551818602810186019096528086529194929360c08601939290830182828015610b7857602002820191906000526020600020906000905b825461010083900a900460ff16815260206001928301818104948501949093039092029101808411610b495790505b50505050508152602001600282015481526020016003820154815250509050919050565b6000818152600260205260408120546001600160a01b0316806104c25760405162461bcd60e51b8152602060048201526018602482015277115490cdcc8c4e881a5b9d985b1a59081d1bdad95b88125160421b60448201526064016105f5565b60006001600160a01b038216610c665760405162461bcd60e51b815260206004820152602960248201527f4552433732313a2061646472657373207a65726f206973206e6f7420612076616044820152683634b21037bbb732b960b91b60648201526084016105f5565b506001600160a01b031660009081526003602052604090205490565b610c8a61164b565b610c9460006116a5565b565b610c9e61164b565b600e55565b60098160058110610cb357600080fd5b60209182820401919006915054906101000a900460ff1681565b6060600180546104d7906123c6565b610ce73383836116f7565b5050565b336000908152600b6020526040812054600511610d4a5760405162461bcd60e51b815260206004820152601c60248201527fe69c80e5a49ae58faae883bde68ba5e69c8935e58faae5aea0e789a90000000060448201526064016105f5565b610d58600880546001019055565b6000610d6360085490565b90506000610d6f6117c5565b90506000610d7c82611853565b6000848152600a60209081526040918290208351815483860151948601516060870151608088015160a089015160ff908116600160481b0269ff0000000000000000001991909216600160401b021669ffff00000000000000001961ffff938416600160301b0267ffff00000000000019958516640100000000029590951667ffffffff00000000199a8516620100000263ffffffff19909716949097169390931794909417979097169390931717919091161792909217825560c083015180519394508493610e529260018501920190611f70565b5060e0820151600282015561010090910151600390910155336000908152600b60205260408120805491610e85836124f7565b9190505550610e94338461194e565b60405160ff83168152839033907fb9cd10433b7166b67a7007a37af99e225d4c8b338c0737378b1d9afa64a707e59060200160405180910390a3509092915050565b610ee033836113e7565b610efc5760405162461bcd60e51b81526004016105f590612400565b610f0884848484611abb565b50505050565b610f1661164b565b600d55565b60606104c282611aee565b610f2f816115aa565b610f4b5760405162461bcd60e51b81526004016105f59061244d565b33610f5582610b9c565b6001600160a01b031614610fa05760405162461bcd60e51b8152602060048201526012602482015271725c46f34c57f2d75073c4d4f25c5df25d5d60711b60448201526064016105f5565b6000818152600a6020526040902080546064600160401b90910460ff16106110025760405162461bcd60e51b8152602060048201526015602482015274e5b7b2e8bebee588b0e69c80e9ab98e7ad89e7baa760581b60448201526064016105f5565b600e54600c546040516370a0823160e01b81523360048201526001600160a01b03909116906370a0823190602401602060405180830381865afa15801561104d573d6000803e3d6000fd5b505050506040513d601f19601f82011682018060405250810190611071919061249f565b10156110ae5760405162461bcd60e51b815260206004820152600c60248201526be4bba3e5b881e4b88de8b6b360a01b60448201526064016105f5565b600c54600e546040516323b872dd60e01b815233600482015230602482015260448101919091526001600160a01b03909116906323b872dd906064016020604051808303816000875af1158015611109573d6000803e3d6000fd5b505050506040513d601f19601f8201168201806040525081019061112d91906124b8565b508054600160401b900460ff1681600861114683612510565b91906101000a81548160ff021916908360ff16021790555050601e61116d600160646115c7565b116111be576000611180600160146115c7565b600180840180549182018155600090815260209081902090820401805460ff938416601f9093166101000a9283029390920219909116919091179055505b8054600182015483917f13a8f4c2d15f4d8e6631bc3a42a13c5d84486ee54c5f89f41528127072e1a2fa91600160401b90910460ff1690611200576000611243565b6001808501805490916112129161252f565b8154811061122257611222612542565b90600052602060002090602091828204019190069054906101000a900460ff165b6040805160ff938416815292909116602083015201610a4d565b6001600160a01b03918216600090815260056020908152604080832093909416825291909152205460ff1690565b61129361164b565b6001600160a01b0381166112f85760405162461bcd60e51b815260206004820152602660248201527f4f776e61626c653a206e6577206f776e657220697320746865207a65726f206160448201526564647265737360d01b60648201526084016105f5565b611301816116a5565b50565b60006001600160e01b03198216632483248360e11b14806104c257506104c282611bf6565b611332816115aa565b6113015760405162461bcd60e51b8152602060048201526018602482015277115490cdcc8c4e881a5b9d985b1a59081d1bdad95b88125160421b60448201526064016105f5565b600081815260046020526040902080546001600160a01b0319166001600160a01b03841690811790915581906113ae82610b9c565b6001600160a01b03167f8c5be1e5ebec7d5bd14f71427d1e84f3dd0314c0f7b2291e5b200ac8c7c3b92560405160405180910390a45050565b6000806113f383610b9c565b9050806001600160a01b0316846001600160a01b0316148061141a575061141a818561125d565b8061143e5750836001600160a01b03166114338461055a565b6001600160a01b0316145b949350505050565b826001600160a01b031661145982610b9c565b6001600160a01b03161461147f5760405162461bcd60e51b81526004016105f590612558565b6001600160a01b0382166114e15760405162461bcd60e51b8152602060048201526024808201527f4552433732313a207472616e7366657220746f20746865207a65726f206164646044820152637265737360e01b60648201526084016105f5565b826001600160a01b03166114f482610b9c565b6001600160a01b03161461151a5760405162461bcd60e51b81526004016105f590612558565b600081815260046020908152604080832080546001600160a01b03199081169091556001600160a01b0387811680865260038552838620805460001901905590871680865283862080546001019055868652600290945282852080549092168417909155905184937fddf252ad1be2c89b69c2b068fc378daa952ba7f163c4a11628f55a4df523b3ef91a4505050565b6000908152600260205260409020546001600160a01b0316151590565b6000826115d4818461252f565b6115df90600161248c565b42443360405160200161161793929190928352602083019190915260601b6bffffffffffffffffffffffff1916604082015260540190565b6040516020818303038152906040528051906020012060001c61163a919061259d565b611644919061248c565b9392505050565b6007546001600160a01b03163314610c945760405162461bcd60e51b815260206004820181905260248201527f4f776e61626c653a2063616c6c6572206973206e6f7420746865206f776e657260448201526064016105f5565b600780546001600160a01b038381166001600160a01b0319831681179093556040519116919082907f8be0079c531659141344cd1fd0a4f28419497f9722a3daafe3b4186f6b6457e090600090a35050565b816001600160a01b0316836001600160a01b0316036117585760405162461bcd60e51b815260206004820152601960248201527f4552433732313a20617070726f766520746f2063616c6c65720000000000000060448201526064016105f5565b6001600160a01b03838116600081815260056020908152604080832094871680845294825291829020805460ff191686151590811790915591519182527f17307eab39ab6107e8899845ad3d59bd9653f200f220920489ca2b5937696c31910160405180910390a3505050565b6000806117d4600160646115c7565b90506000805b60058160ff1610156118495760098160ff16600581106117fc576117fc612542565b60208104919091015461181b91601f166101000a900460ff168361248c565b91508183116118375761182f8160016125bf565b935050505090565b8061184181612510565b9150506117da565b5060019250505090565b61185b611f25565b60408051610120810190915260ff831690808261187a600a60146115c7565b61188491906125d8565b61ffff1681526020018261ffff1661189e6008600f6115c7565b6118a891906125d8565b61ffff1681526020018261ffff166118c26005600c6115c7565b6118cc91906125d8565b61ffff1681526020018261ffff166118e6603260646115c7565b6118f091906125d8565b61ffff1681526001602082015260ff851660408201526060016000604051908082528060200260200182016040528015611934578160200160208202803683370190505b508152602001600081526020016000815250915050919050565b6001600160a01b0382166119a45760405162461bcd60e51b815260206004820181905260248201527f4552433732313a206d696e7420746f20746865207a65726f206164647265737360448201526064016105f5565b6119ad816115aa565b156119fa5760405162461bcd60e51b815260206004820152601c60248201527f4552433732313a20746f6b656e20616c7265616479206d696e7465640000000060448201526064016105f5565b611a03816115aa565b15611a505760405162461bcd60e51b815260206004820152601c60248201527f4552433732313a20746f6b656e20616c7265616479206d696e7465640000000060448201526064016105f5565b6001600160a01b038216600081815260036020908152604080832080546001019055848352600290915280822080546001600160a01b0319168417905551839291907fddf252ad1be2c89b69c2b068fc378daa952ba7f163c4a11628f55a4df523b3ef908290a45050565b611ac6848484611446565b611ad284848484611c46565b610f085760405162461bcd60e51b81526004016105f5906125ef565b6060611af982611329565b60008281526006602052604081208054611b12906123c6565b80601f0160208091040260200160405190810160405280929190818152602001828054611b3e906123c6565b8015611b8b5780601f10611b6057610100808354040283529160200191611b8b565b820191906000526020600020905b815481529060010190602001808311611b6e57829003601f168201915b505050505090506000611ba960408051602081019091526000815290565b90508051600003611bbb575092915050565b815115611bed578082604051602001611bd5929190612641565b60405160208183030381529060405292505050919050565b61143e84611d47565b60006001600160e01b031982166380ac58cd60e01b1480611c2757506001600160e01b03198216635b5e139f60e01b145b806104c257506301ffc9a760e01b6001600160e01b03198316146104c2565b60006001600160a01b0384163b15611d3c57604051630a85bd0160e11b81526001600160a01b0385169063150b7a0290611c8a903390899088908890600401612670565b6020604051808303816000875af1925050508015611cc5575060408051601f3d908101601f19168201909252611cc2918101906126ad565b60015b611d22573d808015611cf3576040519150601f19603f3d011682016040523d82523d6000602084013e611cf8565b606091505b508051600003611d1a5760405162461bcd60e51b81526004016105f5906125ef565b805181602001fd5b6001600160e01b031916630a85bd0160e11b14905061143e565b506001949350505050565b6060611d5282611329565b6000611d6960408051602081019091526000815290565b90506000815111611d895760405180602001604052806000815250611644565b80611d9384611dba565b604051602001611da4929190612641565b6040516020818303038152906040529392505050565b60606000611dc783611e4d565b600101905060008167ffffffffffffffff811115611de757611de76122a1565b6040519080825280601f01601f191660200182016040528015611e11576020820181803683370190505b5090508181016020015b600019016f181899199a1a9b1b9c1cb0b131b232b360811b600a86061a8153600a8504945084611e1b57509392505050565b60008072184f03e93ff9f4daa797ed6e38ed64bf6a1f0160401b8310611e8c5772184f03e93ff9f4daa797ed6e38ed64bf6a1f0160401b830492506040015b6d04ee2d6d415b85acef81000000008310611eb8576d04ee2d6d415b85acef8100000000830492506020015b662386f26fc100008310611ed657662386f26fc10000830492506010015b6305f5e1008310611eee576305f5e100830492506008015b6127108310611f0257612710830492506004015b60648310611f14576064830492506002015b600a83106104c25760010192915050565b604080516101208101825260008082526020820181905291810182905260608082018390526080820183905260a0820183905260c082015260e0810182905261010081019190915290565b82805482825590600052602060002090601f016020900481019282156120065791602002820160005b83821115611fd757835183826101000a81548160ff021916908360ff1602179055509260200192600101602081600001049283019260010302611f99565b80156120045782816101000a81549060ff0219169055600101602081600001049283019260010302611fd7565b505b50612012929150612016565b5090565b5b808211156120125760008155600101612017565b6001600160e01b03198116811461130157600080fd5b60006020828403121561205357600080fd5b81356116448161202b565b60005b83811015612079578181015183820152602001612061565b50506000910152565b6000815180845261209a81602086016020860161205e565b601f01601f19169290920160200192915050565b6020815260006116446020830184612082565b6000602082840312156120d357600080fd5b5035919050565b80356001600160a01b03811681146120f157600080fd5b919050565b6000806040838503121561210957600080fd5b612112836120da565b946020939093013593505050565b60008060006060848603121561213557600080fd5b61213e846120da565b925061214c602085016120da565b9150604084013590509250925092565b60006020828403121561216e57600080fd5b611644826120da565b600081518084526020808501945080840160005b838110156121aa57815160ff168752958201959082019060010161218b565b509495945050505050565b602081526121ca60208201835161ffff169052565b600060208301516121e1604084018261ffff169052565b50604083015161ffff8116606084015250606083015161ffff8116608084015250608083015160ff811660a08401525060a083015160ff811660c08401525060c08301516101208060e085015261223c610140850183612177565b60e086015161010086810191909152909501519301929092525090919050565b801515811461130157600080fd5b6000806040838503121561227d57600080fd5b612286836120da565b915060208301356122968161225c565b809150509250929050565b634e487b7160e01b600052604160045260246000fd5b600080600080608085870312156122cd57600080fd5b6122d6856120da565b93506122e4602086016120da565b925060408501359150606085013567ffffffffffffffff8082111561230857600080fd5b818701915087601f83011261231c57600080fd5b81358181111561232e5761232e6122a1565b604051601f8201601f19908116603f01168101908382118183101715612356576123566122a1565b816040528281528a602084870101111561236f57600080fd5b82602086016020830137600060208483010152809550505050505092959194509250565b600080604083850312156123a657600080fd5b6123af836120da565b91506123bd602084016120da565b90509250929050565b600181811c908216806123da57607f821691505b6020821081036123fa57634e487b7160e01b600052602260045260246000fd5b50919050565b6020808252602d908201527f4552433732313a2063616c6c6572206973206e6f7420746f6b656e206f776e6560408201526c1c881bdc88185c1c1c9bdd9959609a1b606082015260800190565b6020808252600f908201526e1cb5d41cf1353c9711bcb5b31cb395608b1b604082015260600190565b634e487b7160e01b600052601160045260246000fd5b808201808211156104c2576104c2612476565b6000602082840312156124b157600080fd5b5051919050565b6000602082840312156124ca57600080fd5b81516116448161225c565b61ffff8181168382160190808211156124f0576124f0612476565b5092915050565b60006001820161250957612509612476565b5060010190565b600060ff821660ff810361252657612526612476565b60010192915050565b818103818111156104c2576104c2612476565b634e487b7160e01b600052603260045260246000fd5b60208082526025908201527f4552433732313a207472616e736665722066726f6d20696e636f72726563742060408201526437bbb732b960d91b606082015260800190565b6000826125ba57634e487b7160e01b600052601260045260246000fd5b500690565b60ff81811683821601908111156104c2576104c2612476565b80820281158282048414176104c2576104c2612476565b60208082526032908201527f4552433732313a207472616e7366657220746f206e6f6e20455243373231526560408201527131b2b4bb32b91034b6b83632b6b2b73a32b960711b606082015260800190565b6000835161265381846020880161205e565b83519083019061266781836020880161205e565b01949350505050565b6001600160a01b03858116825284166020820152604081018390526080606082018190526000906126a390830184612082565b9695505050505050565b6000602082840312156126bf57600080fd5b81516116448161202b56fea26469706673582212202592e73a435e2bf50a08e1700815ea071d5700e12e6c2df5c0c01f22960b095f64736f6c63430008140033",
  "linkReferences": {},
  "deployedLinkReferences": {}
}