{
  "_format": "hh-sol-artifact-1",
  "contractName": "GameToken",
  "sourceName": "contracts/GameToken.sol",
  "abi": [
    {
      "inputs": [],
      "stateMutability": "nonpayable",
      "type": "constructor"
    },
    {
      "anonymous": false,
      "inputs": [
        {
          "indexed": true,
          "internalType": "address",
          "name": "owner",
          "type": "address"
        },
        {
          "indexed": true,
          "internalType": "address",
          "name": "spender",
          "type": "address"
        },
        {
          "indexed": false,
          "internalType": "uint256",
          "name": "value",
          "type": "uint256"
        }
      ],
      "name": "Approval",
      "type": "event"
    },
    {
      "anonymous": false,
      "inputs": [
        {
          "indexed": false,
          "internalType": "uint256",
          "name": "newAmount",
          "type": "uint256"
        }
      ],
      "name": "DailyRewardUpdated",
      "type": "event"
    },
    {
      "anonymous": false,
      "inputs": [
        {
          "indexed": true,
          "internalType": "address",
          "name": "previousOwner",
          "type": "address"
        },
        {
          "indexed": true,
          "internalType": "address",
          "name": "newOwner",
          "type": "address"
        }
      ],
      "name": "OwnershipTransferred",
      "type": "event"
    },
    {
      "anonymous": false,
      "inputs": [
        {
          "indexed": true,
          "internalType": "address",
          "name": "user",
          "type": "address"
        },
        {
          "indexed": false,
          "internalType": "uint256",
          "name": "amount",
          "type": "uint256"
        }
      ],
      "name": "TokensMined",
      "type": "event"
    },
    {
      "anonymous": false,
      "inputs": [
        {
          "indexed": true,
          "internalType": "address",
          "name": "from",
          "type": "address"
        },
        {
          "indexed": true,
          "internalType": "address",
          "name": "to",
          "type": "address"
        },
        {
          "indexed": false,
          "internalType": "uint256",
          "name": "value",
          "type": "uint256"
        }
      ],
      "name": "Transfer",
      "type": "event"
    },
    {
      "inputs": [],
      "name": "INITIAL_SUPPLY",
      "outputs": [
        {
          "internalType": "uint256",
          "name": "",
          "type": "uint256"
        }
      ],
      "stateMutability": "view",
      "type": "function"
    },
    {
      "inputs": [],
      "name": "MAX_SUPPLY",
      "outputs": [
        {
          "internalType": "uint256",
          "name": "",
          "type": "uint256"
        }
      ],
      "stateMutability": "view",
      "type": "function"
    },
    {
      "inputs": [
        {
          "internalType": "address",
          "name": "owner",
          "type": "address"
        },
        {
          "internalType": "address",
          "name": "spender",
          "type": "address"
        }
      ],
      "name": "allowance",
      "outputs": [
        {
          "internalType": "uint256",
          "name": "",
          "type": "uint256"
        }
      ],
      "stateMutability": "view",
      "type": "function"
    },
    {
      "inputs": [
        {
          "internalType": "address",
          "name": "spender",
          "type": "address"
        },
        {
          "internalType": "uint256",
          "name": "amount",
          "type": "uint256"
        }
      ],
      "name": "approve",
      "outputs": [
        {
          "internalType": "bool",
          "name": "",
          "type": "bool"
        }
      ],
      "stateMutability": "nonpayable",
      "type": "function"
    },
    {
      "inputs": [
        {
          "internalType": "address",
          "name": "account",
          "type": "address"
        }
      ],
      "name": "balanceOf",
      "outputs": [
        {
          "internalType": "uint256",
          "name": "",
          "type": "uint256"
        }
      ],
      "stateMutability": "view",
      "type": "function"
    },
    {
      "inputs": [
        {
          "internalType": "address",
          "name": "",
          "type": "address"
        }
      ],
      "name": "battleContracts",
      "outputs": [
        {
          "internalType": "bool",
          "name": "",
          "type": "bool"
        }
      ],
      "stateMutability": "view",
      "type": "function"
    },
    {
      "inputs": [
        {
          "internalType": "address",
          "name": "winner",
          "type": "address"
        },
        {
          "internalType": "uint256",
          "name": "amount",
          "type": "uint256"
        }
      ],
      "name": "battleReward",
      "outputs": [],
      "stateMutability": "nonpayable",
      "type": "function"
    },
    {
      "inputs": [
        {
          "internalType": "uint256",
          "name": "amount",
          "type": "uint256"
        }
      ],
      "name": "burn",
      "outputs": [],
      "stateMutability": "nonpayable",
      "type": "function"
    },
    {
      "inputs": [],
      "name": "dailyMiningReward",
      "outputs": [
        {
          "internalType": "uint256",
          "name": "",
          "type": "uint256"
        }
      ],
      "stateMutability": "view",
      "type": "function"
    },
    {
      "inputs": [],
      "name": "decimals",
      "outputs": [
        {
          "internalType": "uint8",
          "name": "",
          "type": "uint8"
        }
      ],
      "stateMutability": "view",
      "type": "function"
    },
    {
      "inputs": [
        {
          "internalType": "address",
          "name": "spender",
          "type": "address"
        },
        {
          "internalType": "uint256",
          "name": "subtractedValue",
          "type": "uint256"
        }
      ],
      "name": "decreaseAllowance",
      "outputs": [
        {
          "internalType": "bool",
          "name": "",
          "type": "bool"
        }
      ],
      "stateMutability": "nonpayable",
      "type": "function"
    },
    {
      "inputs": [
        {
          "internalType": "address",
          "name": "spender",
          "type": "address"
        },
        {
          "internalType": "uint256",
          "name": "addedValue",
          "type": "uint256"
        }
      ],
      "name": "increaseAllowance",
      "outputs": [
        {
          "internalType": "bool",
          "name": "",
          "type": "bool"
        }
      ],
      "stateMutability": "nonpayable",
      "type": "function"
    },
    {
      "inputs": [
        {
          "internalType": "address",
          "name": "",
          "type": "address"
        }
      ],
      "name": "lastMiningTime",
      "outputs": [
        {
          "internalType": "uint256",
          "name": "",
          "type": "uint256"
        }
      ],
      "stateMutability": "view",
      "type": "function"
    },
    {
      "inputs": [],
      "name": "mineDaily",
      "outputs": [],
      "stateMutability": "nonpayable",
      "type": "function"
    },
    {
      "inputs": [],
      "name": "name",
      "outputs": [
        {
          "internalType": "string",
          "name": "",
          "type": "string"
        }
      ],
      "stateMutability": "view",
      "type": "function"
    },
    {
      "inputs": [],
      "name": "owner",
      "outputs": [
        {
          "internalType": "address",
          "name": "",
          "type": "address"
        }
      ],
      "stateMutability": "view",
      "type": "function"
    },
    {
      "inputs": [
        {
          "internalType": "address",
          "name": "_contract",
          "type": "address"
        }
      ],
      "name": "removeBattleContract",
      "outputs": [],
      "stateMutability": "nonpayable",
      "type": "function"
    },
    {
      "inputs": [],
      "name": "renounceOwnership",
      "outputs": [],
      "stateMutability": "nonpayable",
      "type": "function"
    },
    {
      "inputs": [
        {
          "internalType": "address",
          "name": "_contract",
          "type": "address"
        }
      ],
      "name": "setBattleContract",
      "outputs": [],
      "stateMutability": "nonpayable",
      "type": "function"
    },
    {
      "inputs": [
        {
          "internalType": "uint256",
          "name": "_amount",
          "type": "uint256"
        }
      ],
      "name": "setDailyMiningReward",
      "outputs": [],
      "stateMutability": "nonpayable",
      "type": "function"
    },
    {
      "inputs": [],
      "name": "symbol",
      "outputs": [
        {
          "internalType": "string",
          "name": "",
          "type": "string"
        }
      ],
      "stateMutability": "view",
      "type": "function"
    },
    {
      "inputs": [],
      "name": "totalSupply",
      "outputs": [
        {
          "internalType": "uint256",
          "name": "",
          "type": "uint256"
        }
      ],
      "stateMutability": "view",
      "type": "function"
    },
    {
      "inputs": [
        {
          "internalType": "address",
          "name": "to",
          "type": "address"
        },
        {
          "internalType": "uint256",
          "name": "amount",
          "type": "uint256"
        }
      ],
      "name": "transfer",
      "outputs": [
        {
          "internalType": "bool",
          "name": "",
          "type": "bool"
        }
      ],
      "stateMutability": "nonpayable",
      "type": "function"
    },
    {
      "inputs": [
        {
          "internalType": "address",
          "name": "from",
          "type": "address"
        },
        {
          "internalType": "address",
          "name": "to",
          "type": "address"
        },
        {
          "internalType": "uint256",
          "name": "amount",
          "type": "uint256"
        }
      ],
      "name": "transferFrom",
      "outputs": [
        {
          "internalType": "bool",
          "name": "",
          "type": "bool"
        }
      ],
      "stateMutability": "nonpayable",
      "type": "function"
    },
    {
      "inputs": [
        {
          "internalType": "address",
          "name": "newOwner",
          "type": "address"
        }
      ],
      "name": "transferOwnership",
      "outputs": [],
      "stateMutability": "nonpayable",
      "type": "function"
    }
  ],
  "bytecode": "0x6080604052683635c9adc5dea000006006553480156200001e57600080fd5b50604051806040016040528060118152602001702130ba3a3632902832ba39902a37b5b2b760791b8152506040518060400160405280600381526020016210941560ea1b815250816003908162000076919062000283565b50600462000085828262000283565b505050620000a26200009c620000be60201b60201c565b620000c2565b620000b83369152d02c7e14af680000062000114565b62000377565b3390565b600580546001600160a01b038381166001600160a01b0319831681179093556040519116919082907f8be0079c531659141344cd1fd0a4f28419497f9722a3daafe3b4186f6b6457e090600090a35050565b6001600160a01b0382166200016f5760405162461bcd60e51b815260206004820152601f60248201527f45524332303a206d696e7420746f20746865207a65726f206164647265737300604482015260640160405180910390fd5b80600260008282546200018391906200034f565b90915550506001600160a01b038216600081815260208181526040808320805486019055518481527fddf252ad1be2c89b69c2b068fc378daa952ba7f163c4a11628f55a4df523b3ef910160405180910390a35050565b505050565b634e487b7160e01b600052604160045260246000fd5b600181811c908216806200020a57607f821691505b6020821081036200022b57634e487b7160e01b600052602260045260246000fd5b50919050565b601f821115620001da57600081815260208120601f850160051c810160208610156200025a5750805b601f850160051c820191505b818110156200027b5782815560010162000266565b505050505050565b81516001600160401b038111156200029f576200029f620001df565b620002b781620002b08454620001f5565b8462000231565b602080601f831160018114620002ef5760008415620002d65750858301515b600019600386901b1c1916600185901b1785556200027b565b600085815260208120601f198616915b828110156200032057888601518255948401946001909101908401620002ff565b50858210156200033f5787850151600019600388901b60f8161c191681555b5050505050600190811b01905550565b808201808211156200037157634e487b7160e01b600052601160045260246000fd5b92915050565b6110d080620003876000396000f3fe608060405234801561001057600080fd5b50600436106101735760003560e01c8063715018a6116100de578063a457c2d711610097578063db3384c911610071578063db3384c91461033c578063dd62ed3e14610345578063e25b380a14610358578063f2fde38b1461036057600080fd5b8063a457c2d714610303578063a9059cbb14610316578063aa0fd43d1461032957600080fd5b8063715018a614610292578063877bc3591461029a5780638b15c93f146102ba5780638da5cb5b146102cd57806395d89b41146102e8578063a10cdeb9146102f057600080fd5b80632ff2e9dc116101305780632ff2e9dc14610212578063313ce5671461022357806332cb6b0c14610232578063395093511461024357806342966c681461025657806370a082311461026957600080fd5b806304dc997b1461017857806306fdde03146101b0578063095ea7b3146101c55780630db6dff7146101d857806318160ddd146101ed57806323b872dd146101ff575b600080fd5b61019b610186366004610f24565b60086020526000908152604090205460ff1681565b60405190151581526020015b60405180910390f35b6101b8610373565b6040516101a79190610f3f565b61019b6101d3366004610f8d565b610405565b6101eb6101e6366004610f24565b61041f565b005b6002545b6040519081526020016101a7565b61019b61020d366004610fb7565b61044b565b6101f169152d02c7e14af680000081565b604051601281526020016101a7565b6101f169d3c21bcecceda100000081565b61019b610251366004610f8d565b6104b6565b6101eb610264366004610ff3565b6104d8565b6101f1610277366004610f24565b6001600160a01b031660009081526020819052604090205490565b6101eb6104e5565b6101f16102a8366004610f24565b60076020526000908152604090205481565b6101eb6102c8366004610ff3565b6104f9565b6005546040516001600160a01b0390911681526020016101a7565b6101b861053c565b6101eb6102fe366004610f24565b61054b565b61019b610311366004610f8d565b610574565b61019b610324366004610f8d565b6105fa565b6101eb610337366004610f8d565b61065e565b6101f160065481565b6101f161035336600461100c565b610745565b6101eb610770565b6101eb61036e366004610f24565b610893565b6060600380546103829061103f565b80601f01602080910402602001604051908101604052809291908181526020018280546103ae9061103f565b80156103fb5780601f106103d0576101008083540402835291602001916103fb565b820191906000526020600020905b8154815290600101906020018083116103de57829003601f168201915b5050505050905090565b600033610413818585610909565b60019150505b92915050565b610427610a2e565b6001600160a01b03166000908152600860205260409020805460ff19166001179055565b60006001600160a01b0383166104a35760405162461bcd60e51b815260206004820152601860248201527701c9711bd1077bd17b59d1694dcb1161d3376dcb3961cb3b60471b60448201526064015b60405180910390fd5b6104ae848484610a88565b949350505050565b6000336104138185856104c98383610745565b6104d39190611079565b610909565b6104e23382610aa1565b50565b6104ed610a2e565b6104f76000610bcb565b565b610501610a2e565b60068190556040518181527f7faace00796ea4170d4700db1cca91179c708f3dcb86a8eeb322dad774266ee99060200160405180910390a150565b6060600480546103829061103f565b610553610a2e565b6001600160a01b03166000908152600860205260409020805460ff19169055565b600033816105828286610745565b9050838110156105e25760405162461bcd60e51b815260206004820152602560248201527f45524332303a2064656372656173656420616c6c6f77616e63652062656c6f77604482015264207a65726f60d81b606482015260840161049a565b6105ef8286868403610909565b506001949350505050565b60006001600160a01b03831661064d5760405162461bcd60e51b815260206004820152601860248201527701c9711bd1077bd17b59d1694dcb1161d3376dcb3961cb3b60471b604482015260640161049a565b6106578383610c1d565b9392505050565b6005546001600160a01b031633148061068657503360009081526008602052604090205460ff165b6106d25760405162461bcd60e51b815260206004820152601e60248201527fe58faae69c89e68898e69697e59088e7baa6e58fafe4bba5e8b083e794a80000604482015260640161049a565b69d3c21bcecceda1000000816106e760025490565b6106f19190611079565b11156107375760405162461bcd60e51b8152602060048201526015602482015274e8b685e8bf87e69c80e5a4a7e4be9be5ba94e9878f60581b604482015260640161049a565b6107418282610c2b565b5050565b6001600160a01b03918216600090815260016020908152604080832093909416825291909152205490565b3360009081526007602052604090205461078d9062015180611079565b4210156107d35760405162461bcd60e51b815260206004820152601460248201527374ce40745340f3d6c4f2df42991a72d847f34bdb60611b604482015260640161049a565b69d3c21bcecceda10000006006546107ea60025490565b6107f49190611079565b111561083a5760405162461bcd60e51b8152602060048201526015602482015274e8b685e8bf87e69c80e5a4a7e4be9be5ba94e9878f60581b604482015260640161049a565b3360008181526007602052604090204290556006546108599190610c2b565b60065460405190815233907f08648b53d385d1bea6c696008c89e5bd32e2db0abd56aa1bce8958c25db7eda89060200160405180910390a2565b61089b610a2e565b6001600160a01b0381166109005760405162461bcd60e51b815260206004820152602660248201527f4f776e61626c653a206e6577206f776e657220697320746865207a65726f206160448201526564647265737360d01b606482015260840161049a565b6104e281610bcb565b6001600160a01b03831661096b5760405162461bcd60e51b8152602060048201526024808201527f45524332303a20617070726f76652066726f6d20746865207a65726f206164646044820152637265737360e01b606482015260840161049a565b6001600160a01b0382166109cc5760405162461bcd60e51b815260206004820152602260248201527f45524332303a20617070726f766520746f20746865207a65726f206164647265604482015261737360f01b606482015260840161049a565b6001600160a01b0383811660008181526001602090815260408083209487168084529482529182902085905590518481527f8c5be1e5ebec7d5bd14f71427d1e84f3dd0314c0f7b2291e5b200ac8c7c3b92591015b60405180910390a3505050565b6005546001600160a01b031633146104f75760405162461bcd60e51b815260206004820181905260248201527f4f776e61626c653a2063616c6c6572206973206e6f7420746865206f776e6572604482015260640161049a565b600033610a96858285610cea565b6105ef858585610d64565b6001600160a01b038216610b015760405162461bcd60e51b815260206004820152602160248201527f45524332303a206275726e2066726f6d20746865207a65726f206164647265736044820152607360f81b606482015260840161049a565b6001600160a01b03821660009081526020819052604090205481811015610b755760405162461bcd60e51b815260206004820152602260248201527f45524332303a206275726e20616d6f756e7420657863656564732062616c616e604482015261636560f01b606482015260840161049a565b6001600160a01b0383166000818152602081815260408083208686039055600280548790039055518581529192917fddf252ad1be2c89b69c2b068fc378daa952ba7f163c4a11628f55a4df523b3ef9101610a21565b600580546001600160a01b038381166001600160a01b0319831681179093556040519116919082907f8be0079c531659141344cd1fd0a4f28419497f9722a3daafe3b4186f6b6457e090600090a35050565b600033610413818585610d64565b6001600160a01b038216610c815760405162461bcd60e51b815260206004820152601f60248201527f45524332303a206d696e7420746f20746865207a65726f206164647265737300604482015260640161049a565b8060026000828254610c939190611079565b90915550506001600160a01b038216600081815260208181526040808320805486019055518481527fddf252ad1be2c89b69c2b068fc378daa952ba7f163c4a11628f55a4df523b3ef910160405180910390a35050565b6000610cf68484610745565b90506000198114610d5e5781811015610d515760405162461bcd60e51b815260206004820152601d60248201527f45524332303a20696e73756666696369656e7420616c6c6f77616e6365000000604482015260640161049a565b610d5e8484848403610909565b50505050565b6001600160a01b038316610dc85760405162461bcd60e51b815260206004820152602560248201527f45524332303a207472616e736665722066726f6d20746865207a65726f206164604482015264647265737360d81b606482015260840161049a565b6001600160a01b038216610e2a5760405162461bcd60e51b815260206004820152602360248201527f45524332303a207472616e7366657220746f20746865207a65726f206164647260448201526265737360e81b606482015260840161049a565b6001600160a01b03831660009081526020819052604090205481811015610ea25760405162461bcd60e51b815260206004820152602660248201527f45524332303a207472616e7366657220616d6f756e7420657863656564732062604482015265616c616e636560d01b606482015260840161049a565b6001600160a01b03848116600081815260208181526040808320878703905593871680835291849020805487019055925185815290927fddf252ad1be2c89b69c2b068fc378daa952ba7f163c4a11628f55a4df523b3ef910160405180910390a3610d5e565b80356001600160a01b0381168114610f1f57600080fd5b919050565b600060208284031215610f3657600080fd5b61065782610f08565b600060208083528351808285015260005b81811015610f6c57858101830151858201604001528201610f50565b506000604082860101526040601f19601f8301168501019250505092915050565b60008060408385031215610fa057600080fd5b610fa983610f08565b946020939093013593505050565b600080600060608486031215610fcc57600080fd5b610fd584610f08565b9250610fe360208501610f08565b9150604084013590509250925092565b60006020828403121561100557600080fd5b5035919050565b6000806040838503121561101f57600080fd5b61102883610f08565b915061103660208401610f08565b90509250929050565b600181811c9082168061105357607f821691505b60208210810361107357634e487b7160e01b600052602260045260246000fd5b50919050565b8082018082111561041957634e487b7160e01b600052601160045260246000fdfea26469706673582212202dac6d27ee60e78886b57aae9676d091dbc201b6f53727b9cb5eb3f4d1f28ac464736f6c63430008140033",
  "linkReferences": {},
  "deployedLinkReferences": {}
}