{
  "_format": "hh-sol-artifact-1",
  "contractName": "BattleSystem",
  "sourceName": "contracts/BattleSystem.sol",
  "abi": [
    {
      "inputs": [
        {
          "internalType": "address",
          "name": "_petsNFT",
          "type": "address"
        },
        {
          "internalType": "address",
          "name": "_gameToken",
          "type": "address"
        }
      ],
      "stateMutability": "nonpayable",
      "type": "constructor"
    },
    {
      "anonymous": false,
      "inputs": [
        {
          "indexed": true,
          "internalType": "uint256",
          "name": "battleId",
          "type": "uint256"
        },
        {
          "indexed": false,
          "internalType": "address",
          "name": "winner",
          "type": "address"
        },
        {
          "indexed": false,
          "internalType": "uint256",
          "name": "rounds",
          "type": "uint256"
        }
      ],
      "name": "BattleFinished",
      "type": "event"
    },
    {
      "anonymous": false,
      "inputs": [
        {
          "indexed": true,
          "internalType": "uint256",
          "name": "battleId",
          "type": "uint256"
        },
        {
          "indexed": false,
          "internalType": "address",
          "name": "player1",
          "type": "address"
        },
        {
          "indexed": false,
          "internalType": "address",
          "name": "player2",
          "type": "address"
        },
        {
          "indexed": false,
          "internalType": "uint256",
          "name": "pet1Id",
          "type": "uint256"
        },
        {
          "indexed": false,
          "internalType": "uint256",
          "name": "pet2Id",
          "type": "uint256"
        }
      ],
      "name": "BattleStarted",
      "type": "event"
    },
    {
      "anonymous": false,
      "inputs": [
        {
          "indexed": true,
          "internalType": "address",
          "name": "previousOwner",
          "type": "address"
        },
        {
          "indexed": true,
          "internalType": "address",
          "name": "newOwner",
          "type": "address"
        }
      ],
      "name": "OwnershipTransferred",
      "type": "event"
    },
    {
      "anonymous": false,
      "inputs": [
        {
          "indexed": true,
          "internalType": "address",
          "name": "player",
          "type": "address"
        },
        {
          "indexed": false,
          "internalType": "uint256",
          "name": "petId",
          "type": "uint256"
        },
        {
          "indexed": false,
          "internalType": "uint256",
          "name": "entryFee",
          "type": "uint256"
        }
      ],
      "name": "PlayerQueued",
      "type": "event"
    },
    {
      "inputs": [],
      "name": "battleCount",
      "outputs": [
        {
          "internalType": "uint256",
          "name": "",
          "type": "uint256"
        }
      ],
      "stateMutability": "view",
      "type": "function"
    },
    {
      "inputs": [],
      "name": "battleFee",
      "outputs": [
        {
          "internalType": "uint256",
          "name": "",
          "type": "uint256"
        }
      ],
      "stateMutability": "view",
      "type": "function"
    },
    {
      "inputs": [
        {
          "internalType": "uint256",
          "name": "",
          "type": "uint256"
        }
      ],
      "name": "battles",
      "outputs": [
        {
          "internalType": "uint256",
          "name": "battleId",
          "type": "uint256"
        },
        {
          "internalType": "address",
          "name": "player1",
          "type": "address"
        },
        {
          "internalType": "uint256",
          "name": "pet1Id",
          "type": "uint256"
        },
        {
          "internalType": "address",
          "name": "player2",
          "type": "address"
        },
        {
          "internalType": "uint256",
          "name": "pet2Id",
          "type": "uint256"
        },
        {
          "internalType": "enum BattleSystem.BattleStatus",
          "name": "status",
          "type": "uint8"
        },
        {
          "internalType": "address",
          "name": "winner",
          "type": "address"
        },
        {
          "internalType": "uint256",
          "name": "startTime",
          "type": "uint256"
        },
        {
          "internalType": "uint256",
          "name": "endTime",
          "type": "uint256"
        },
        {
          "internalType": "uint256",
          "name": "rounds",
          "type": "uint256"
        }
      ],
      "stateMutability": "view",
      "type": "function"
    },
    {
      "inputs": [
        {
          "internalType": "uint256",
          "name": "petId",
          "type": "uint256"
        }
      ],
      "name": "enterMatchmaking",
      "outputs": [],
      "stateMutability": "nonpayable",
      "type": "function"
    },
    {
      "inputs": [],
      "name": "gameToken",
      "outputs": [
        {
          "internalType": "contract GameToken",
          "name": "",
          "type": "address"
        }
      ],
      "stateMutability": "view",
      "type": "function"
    },
    {
      "inputs": [
        {
          "internalType": "uint256",
          "name": "battleId",
          "type": "uint256"
        }
      ],
      "name": "getBattle",
      "outputs": [
        {
          "components": [
            {
              "internalType": "uint256",
              "name": "battleId",
              "type": "uint256"
            },
            {
              "internalType": "address",
              "name": "player1",
              "type": "address"
            },
            {
              "internalType": "uint256",
              "name": "pet1Id",
              "type": "uint256"
            },
            {
              "internalType": "address",
              "name": "player2",
              "type": "address"
            },
            {
              "internalType": "uint256",
              "name": "pet2Id",
              "type": "uint256"
            },
            {
              "internalType": "enum BattleSystem.BattleStatus",
              "name": "status",
              "type": "uint8"
            },
            {
              "internalType": "address",
              "name": "winner",
              "type": "address"
            },
            {
              "internalType": "uint256",
              "name": "startTime",
              "type": "uint256"
            },
            {
              "internalType": "uint256",
              "name": "endTime",
              "type": "uint256"
            },
            {
              "internalType": "uint256",
              "name": "rounds",
              "type": "uint256"
            }
          ],
          "internalType": "struct BattleSystem.Battle",
          "name": "",
          "type": "tuple"
        }
      ],
      "stateMutability": "view",
      "type": "function"
    },
    {
      "inputs": [],
      "name": "getMatchmakingQueueLength",
      "outputs": [
        {
          "internalType": "uint256",
          "name": "",
          "type": "uint256"
        }
      ],
      "stateMutability": "view",
      "type": "function"
    },
    {
      "inputs": [],
      "name": "loserReward",
      "outputs": [
        {
          "internalType": "uint256",
          "name": "",
          "type": "uint256"
        }
      ],
      "stateMutability": "view",
      "type": "function"
    },
    {
      "inputs": [
        {
          "internalType": "uint256",
          "name": "",
          "type": "uint256"
        }
      ],
      "name": "matchmakingQueue",
      "outputs": [
        {
          "internalType": "address",
          "name": "player",
          "type": "address"
        },
        {
          "internalType": "uint256",
          "name": "petId",
          "type": "uint256"
        },
        {
          "internalType": "uint256",
          "name": "entryTime",
          "type": "uint256"
        },
        {
          "internalType": "uint256",
          "name": "entryFee",
          "type": "uint256"
        }
      ],
      "stateMutability": "view",
      "type": "function"
    },
    {
      "inputs": [],
      "name": "owner",
      "outputs": [
        {
          "internalType": "address",
          "name": "",
          "type": "address"
        }
      ],
      "stateMutability": "view",
      "type": "function"
    },
    {
      "inputs": [],
      "name": "petsNFT",
      "outputs": [
        {
          "internalType": "contract BattlePetsNFT",
          "name": "",
          "type": "address"
        }
      ],
      "stateMutability": "view",
      "type": "function"
    },
    {
      "inputs": [],
      "name": "renounceOwnership",
      "outputs": [],
      "stateMutability": "nonpayable",
      "type": "function"
    },
    {
      "inputs": [
        {
          "internalType": "uint256",
          "name": "_fee",
          "type": "uint256"
        }
      ],
      "name": "setBattleFee",
      "outputs": [],
      "stateMutability": "nonpayable",
      "type": "function"
    },
    {
      "inputs": [
        {
          "internalType": "uint256",
          "name": "_winnerReward",
          "type": "uint256"
        },
        {
          "internalType": "uint256",
          "name": "_loserReward",
          "type": "uint256"
        }
      ],
      "name": "setRewards",
      "outputs": [],
      "stateMutability": "nonpayable",
      "type": "function"
    },
    {
      "inputs": [
        {
          "internalType": "address",
          "name": "newOwner",
          "type": "address"
        }
      ],
      "name": "transferOwnership",
      "outputs": [],
      "stateMutability": "nonpayable",
      "type": "function"
    },
    {
      "inputs": [],
      "name": "winnerReward",
      "outputs": [
        {
          "internalType": "uint256",
          "name": "",
          "type": "uint256"
        }
      ],
      "stateMutability": "view",
      "type": "function"
    }
  ],
  "bytecode": "0x6080604052674563918244f40000600355678ac7230489e80000600455671bc16d674ec800006005553480156200003557600080fd5b506040516200183c3803806200183c833981016040819052620000589162000102565b620000633362000095565b600180546001600160a01b039384166001600160a01b031991821617909155600280549290931691161790556200013a565b600080546001600160a01b038381166001600160a01b0319831681178455604051919092169283917f8be0079c531659141344cd1fd0a4f28419497f9722a3daafe3b4186f6b6457e09190a35050565b80516001600160a01b0381168114620000fd57600080fd5b919050565b600080604083850312156200011657600080fd5b6200012183620000e5565b91506200013160208401620000e5565b90509250929050565b6116f2806200014a6000396000f3fe608060405234801561001057600080fd5b50600436106101005760003560e01c80638da5cb5b11610097578063c3dfdae611610066578063c3dfdae614610296578063c7f42c64146102a9578063e00b6363146102b2578063f2fde38b146102bb57600080fd5b80638da5cb5b146102565780638fadfd3a146102675780639493ac071461027a578063b9705a031461028d57600080fd5b8063654e51e7116100d3578063654e51e7146101dc5780636dd0ce7a146101f15780636e74c4ca14610211578063715018a61461024e57600080fd5b80632426d2a4146101055780632c3593f51461012157806332f5bc771461014c578063606d2e9614610154575b600080fd5b61010e60055481565b6040519081526020015b60405180910390f35b600154610134906001600160a01b031681565b6040516001600160a01b039091168152602001610118565b60085461010e565b6101c66101623660046111ba565b600660208190526000918252604090912080546001820154600283015460038401546004850154600586015496860154600787015460089097015495976001600160a01b0395861697949693861695929460ff82169461010090920490931692908a565b6040516101189a9998979695949392919061120b565b6101ef6101ea366004611272565b6102ce565b005b6102046101ff3660046111ba565b6102e1565b6040516101189190611294565b61022461021f3660046111ba565b61040e565b604080516001600160a01b0390951685526020850193909352918301526060820152608001610118565b6101ef610452565b6000546001600160a01b0316610134565b6101ef6102753660046111ba565b610466565b6101ef6102883660046111ba565b610787565b61010e60045481565b600254610134906001600160a01b031681565b61010e60035481565b61010e60075481565b6101ef6102c9366004611353565b610794565b6102d661080a565b600491909155600555565b610340604080516101408101825260008082526020820181905291810182905260608101829052608081018290529060a0820190815260200160006001600160a01b031681526020016000815260200160008152602001600081525090565b6000828152600660209081526040918290208251610140810184528154815260018201546001600160a01b039081169382019390935260028083015494820194909452600382015490921660608301526004810154608083015260058101549192909160a084019160ff909116908111156103bd576103bd6111d3565b60028111156103ce576103ce6111d3565b8152600582015461010090046001600160a01b03166020820152600682015460408201526007820154606082015260089091015460809091015292915050565b6008818154811061041e57600080fd5b600091825260209091206004909102018054600182015460028301546003909301546001600160a01b039092169350919084565b61045a61080a565b6104646000610864565b565b6001546040516331a9108f60e11b81526004810183905233916001600160a01b031690636352211e90602401602060405180830381865afa1580156104af573d6000803e3d6000fd5b505050506040513d601f19601f820116820180604052508101906104d39190611377565b6001600160a01b0316146105235760405162461bcd60e51b8152602060048201526012602482015271725c46f34c57f2d75073c4d4f25c5df25d5d60711b60448201526064015b60405180910390fd5b6003546002546040516370a0823160e01b81523360048201526001600160a01b03909116906370a0823190602401602060405180830381865afa15801561056e573d6000803e3d6000fd5b505050506040513d601f19601f820116820180604052508101906105929190611394565b10156105cf5760405162461bcd60e51b815260206004820152600c60248201526be4bba3e5b881e4b88de8b6b360a01b604482015260640161051a565b6002546003546040516323b872dd60e01b815233600482015230602482015260448101919091526001600160a01b03909116906323b872dd906064016020604051808303816000875af115801561062a573d6000803e3d6000fd5b505050506040513d601f19601f8201168201806040525081019061064e91906113ad565b50604080516080810182523380825260208083018581524284860190815260038054606087019081526008805460018101825560009190915296517ff3f7a9fe364faab93b216da50a3214154f22a0a2b415b23a84c8169e8b636ee3600490980297880180546001600160a01b0319166001600160a01b0390921691909117905592517ff3f7a9fe364faab93b216da50a3214154f22a0a2b415b23a84c8169e8b636ee487015590517ff3f7a9fe364faab93b216da50a3214154f22a0a2b415b23a84c8169e8b636ee586015590517ff3f7a9fe364faab93b216da50a3214154f22a0a2b415b23a84c8169e8b636ee6909401939093559154835185815292830152917f32ac4432daf0cb5f0cd70d33e01878eaaca2fb7e720dab9510b37c98e13271df910160405180910390a26107846108b4565b50565b61078f61080a565b600355565b61079c61080a565b6001600160a01b0381166108015760405162461bcd60e51b815260206004820152602660248201527f4f776e61626c653a206e6577206f776e657220697320746865207a65726f206160448201526564647265737360d01b606482015260840161051a565b61078481610864565b6000546001600160a01b031633146104645760405162461bcd60e51b815260206004820181905260248201527f4f776e61626c653a2063616c6c6572206973206e6f7420746865206f776e6572604482015260640161051a565b600080546001600160a01b038381166001600160a01b0319831681178455604051919092169283917f8be0079c531659141344cd1fd0a4f28419497f9722a3daafe3b4186f6b6457e09190a35050565b60085460021161046457600060086000815481106108d4576108d46113cf565b6000918252602080832060408051608081018252600490940290910180546001600160a01b031684526001808201549385019390935260028101549184019190915260030154606083015260088054929450918110610935576109356113cf565b6000918252602080832060408051608081018252600490940290910180546001600160a01b031684526001810154928401929092526002820154908301526003015460608201529150610987906109b1565b61099160006109b1565b6109ad8260000151836020015183600001518460200151610af7565b5050565b60085481106109f75760405162461bcd60e51b815260206004820152601260248201527139ed28b96f257a2da17961eeba2320f966ed60721b604482015260640161051a565b805b600854610a08906001906113fb565b811015610aab576008610a1c82600161140e565b81548110610a2c57610a2c6113cf565b906000526020600020906004020160088281548110610a4d57610a4d6113cf565b60009182526020909120825460049092020180546001600160a01b0319166001600160a01b03909216919091178155600180830154908201556002808301549082015560039182015491015580610aa381611421565b9150506109f9565b506008805480610abd57610abd61143a565b60008281526020812060046000199093019283020180546001600160a01b0319168155600181018290556002810182905560030155905550565b60078054906000610b0783611421565b919050555060006040518061014001604052806007548152602001866001600160a01b03168152602001858152602001846001600160a01b0316815260200183815260200160016002811115610b5f57610b5f6111d3565b8152600060208083018290524260408085019190915260608085018490526080948501849052600754845260068352928190208551815591850151600180840180546001600160a01b039384166001600160a01b031991821617909155928701516002808601919091559487015160038501805491909316931692909217905592840151600482015560a0840151600582018054959650869592949193909260ff191691908490811115610c1557610c156111d3565b021790555060c0820151600582018054610100600160a81b0319166101006001600160a01b0393841681029190911790915560e084015160068401558301516007808401919091556101209093015160089092019190915590546040805188841681529286166020840152820186905260608201849052907fc441ce4b01dcdafd8c099080e5945a38e6fe9d3dfca01f0e77a26c19b4e0c9699060800160405180910390a2610cc5600754610ccc565b5050505050565b60008181526006602052604080822060015460028201549251631675546560e21b81529193926001600160a01b03909116916359d5519491610d149160040190815260200190565b600060405180830381865afa158015610d31573d6000803e3d6000fd5b505050506040513d6000823e601f3d908101601f19168201604052610d59919081019061155a565b600154600484810154604051631675546560e21b8152918201529192506000916001600160a01b03909116906359d5519490602401600060405180830381865afa158015610dab573d6000803e3d6000fd5b505050506040513d6000823e601f3d908101601f19168201604052610dd3919081019061155a565b606080840151908201519192509060005b60008361ffff16118015610dfc575060008261ffff16115b8015610e085750601481105b15610ea75780610e1781611421565b91505061ffff831615610e5e576000610e3886600001518660200151610fb1565b90508261ffff16811115610e4f5760009250610e5c565b610e598184611645565b92505b505b61ffff821615610ea2576000610e7c85600001518760200151610fb1565b90508361ffff16811115610e935760009350610ea0565b610e9d8185611645565b93505b505b610de4565b600061ffff841615610ec7575060018601546001600160a01b0316610f23565b61ffff831615610ee5575060038601546001600160a01b0316610f23565b6002610eef61103f565b610ef9919061167d565b15610f115760038701546001600160a01b0316610f20565b60018701546001600160a01b03165b90505b60058701805460ff196001600160a01b03841661010002166001600160a81b031990911617600217905542600788015560088701829055610f6387611097565b604080516001600160a01b03831681526020810184905289917f109bf797b9cf966deed04567e73d27c2d17ec9e26242bda10ff46fe9b8f1c24a910160405180910390a25050505050505050565b600061ffff808416908290606490610fcc9086166032611691565b610fd691906116a8565b90506000610fe482846113fb565b905060006014610ff261103f565b610ffc919061167d565b61100790605a61140e565b905060646110158284611691565b61101f91906116a8565b915060008211611030576001611032565b815b9450505050505b92915050565b600042443360405160200161107993929190928352602083019190915260601b6bffffffffffffffffffffffff1916604082015260540190565b6040516020818303038152906040528051906020012060001c905090565b600581015460018201546001600160a01b036101009092048216916000911682146110cf5760018301546001600160a01b03166110de565b60038301546001600160a01b03165b6002546004805460405163aa0fd43d60e01b81526001600160a01b03878116938201939093526024810191909152929350169063aa0fd43d90604401600060405180830381600087803b15801561113457600080fd5b505af1158015611148573d6000803e3d6000fd5b505060025460055460405163aa0fd43d60e01b81526001600160a01b03868116600483015260248201929092529116925063aa0fd43d9150604401600060405180830381600087803b15801561119d57600080fd5b505af11580156111b1573d6000803e3d6000fd5b50505050505050565b6000602082840312156111cc57600080fd5b5035919050565b634e487b7160e01b600052602160045260246000fd5b6003811061120757634e487b7160e01b600052602160045260246000fd5b9052565b8a81526001600160a01b038a81166020830152604082018a905288811660608301526080820188905261014082019061124760a08401896111e9565b9590951660c082015260e0810193909352610100830191909152610120909101529695505050505050565b6000806040838503121561128557600080fd5b50508035926020909101359150565b815181526020808301516101408301916112b8908401826001600160a01b03169052565b506040830151604083015260608301516112dd60608401826001600160a01b03169052565b506080830151608083015260a08301516112fa60a08401826111e9565b5060c083015161131560c08401826001600160a01b03169052565b5060e083015160e083015261010080840151818401525061012080840151818401525092915050565b6001600160a01b038116811461078457600080fd5b60006020828403121561136557600080fd5b81356113708161133e565b9392505050565b60006020828403121561138957600080fd5b81516113708161133e565b6000602082840312156113a657600080fd5b5051919050565b6000602082840312156113bf57600080fd5b8151801515811461137057600080fd5b634e487b7160e01b600052603260045260246000fd5b634e487b7160e01b600052601160045260246000fd5b81810381811115611039576110396113e5565b80820180821115611039576110396113e5565b600060018201611433576114336113e5565b5060010190565b634e487b7160e01b600052603160045260246000fd5b634e487b7160e01b600052604160045260246000fd5b604051610120810167ffffffffffffffff8111828210171561148a5761148a611450565b60405290565b805161ffff811681146114a257600080fd5b919050565b805160ff811681146114a257600080fd5b600082601f8301126114c957600080fd5b8151602067ffffffffffffffff808311156114e6576114e6611450565b8260051b604051601f19603f8301168101818110848211171561150b5761150b611450565b60405293845285810183019383810192508785111561152957600080fd5b83870191505b8482101561154f57611540826114a7565b8352918301919083019061152f565b979650505050505050565b60006020828403121561156c57600080fd5b815167ffffffffffffffff8082111561158457600080fd5b90830190610120828603121561159957600080fd5b6115a1611466565b6115aa83611490565b81526115b860208401611490565b60208201526115c960408401611490565b60408201526115da60608401611490565b60608201526115eb608084016114a7565b60808201526115fc60a084016114a7565b60a082015260c08301518281111561161357600080fd5b61161f878286016114b8565b60c08301525060e083810151908201526101009283015192810192909252509392505050565b61ffff828116828216039080821115611660576116606113e5565b5092915050565b634e487b7160e01b600052601260045260246000fd5b60008261168c5761168c611667565b500690565b8082028115828204841417611039576110396113e5565b6000826116b7576116b7611667565b50049056fea264697066735822122066660e11ec11f1faf58e00d1cd97d5a7153bbd352fcf894e0885dba0403b623964736f6c63430008140033",
  "linkReferences": {},
  "deployedLinkReferences": {}
}