{
  "_format": "hh-sol-artifact-1",
  "contractName": "Marketplace",
  "sourceName": "contracts/Marketplace.sol",
  "abi": [
    {
      "inputs": [
        {
          "internalType": "address",
          "name": "_petsNFT",
          "type": "address"
        },
        {
          "internalType": "address",
          "name": "_gameToken",
          "type": "address"
        }
      ],
      "stateMutability": "nonpayable",
      "type": "constructor"
    },
    {
      "anonymous": false,
      "inputs": [
        {
          "indexed": true,
          "internalType": "uint256",
          "name": "tokenId",
          "type": "uint256"
        },
        {
          "indexed": true,
          "internalType": "address",
          "name": "seller",
          "type": "address"
        },
        {
          "indexed": false,
          "internalType": "uint256",
          "name": "startingPrice",
          "type": "uint256"
        },
        {
          "indexed": false,
          "internalType": "uint256",
          "name": "endTime",
          "type": "uint256"
        }
      ],
      "name": "AuctionCreated",
      "type": "event"
    },
    {
      "anonymous": false,
      "inputs": [
        {
          "indexed": true,
          "internalType": "uint256",
          "name": "tokenId",
          "type": "uint256"
        },
        {
          "indexed": true,
          "internalType": "address",
          "name": "winner",
          "type": "address"
        },
        {
          "indexed": false,
          "internalType": "uint256",
          "name": "finalPrice",
          "type": "uint256"
        }
      ],
      "name": "AuctionEnded",
      "type": "event"
    },
    {
      "anonymous": false,
      "inputs": [
        {
          "indexed": true,
          "internalType": "uint256",
          "name": "tokenId",
          "type": "uint256"
        },
        {
          "indexed": true,
          "internalType": "address",
          "name": "bidder",
          "type": "address"
        },
        {
          "indexed": false,
          "internalType": "uint256",
          "name": "amount",
          "type": "uint256"
        }
      ],
      "name": "BidPlaced",
      "type": "event"
    },
    {
      "anonymous": false,
      "inputs": [
        {
          "indexed": true,
          "internalType": "uint256",
          "name": "tokenId",
          "type": "uint256"
        },
        {
          "indexed": true,
          "internalType": "address",
          "name": "seller",
          "type": "address"
        }
      ],
      "name": "ListingCancelled",
      "type": "event"
    },
    {
      "anonymous": false,
      "inputs": [
        {
          "indexed": true,
          "internalType": "uint256",
          "name": "tokenId",
          "type": "uint256"
        },
        {
          "indexed": true,
          "internalType": "address",
          "name": "seller",
          "type": "address"
        },
        {
          "indexed": false,
          "internalType": "uint256",
          "name": "price",
          "type": "uint256"
        }
      ],
      "name": "ListingCreated",
      "type": "event"
    },
    {
      "anonymous": false,
      "inputs": [
        {
          "indexed": true,
          "internalType": "uint256",
          "name": "tokenId",
          "type": "uint256"
        },
        {
          "indexed": true,
          "internalType": "address",
          "name": "seller",
          "type": "address"
        },
        {
          "indexed": true,
          "internalType": "address",
          "name": "buyer",
          "type": "address"
        },
        {
          "indexed": false,
          "internalType": "uint256",
          "name": "price",
          "type": "uint256"
        }
      ],
      "name": "ListingSold",
      "type": "event"
    },
    {
      "anonymous": false,
      "inputs": [
        {
          "indexed": true,
          "internalType": "address",
          "name": "previousOwner",
          "type": "address"
        },
        {
          "indexed": true,
          "internalType": "address",
          "name": "newOwner",
          "type": "address"
        }
      ],
      "name": "OwnershipTransferred",
      "type": "event"
    },
    {
      "inputs": [],
      "name": "BASIS_POINTS",
      "outputs": [
        {
          "internalType": "uint256",
          "name": "",
          "type": "uint256"
        }
      ],
      "stateMutability": "view",
      "type": "function"
    },
    {
      "inputs": [
        {
          "internalType": "uint256",
          "name": "",
          "type": "uint256"
        }
      ],
      "name": "auctions",
      "outputs": [
        {
          "internalType": "address",
          "name": "seller",
          "type": "address"
        },
        {
          "internalType": "uint256",
          "name": "tokenId",
          "type": "uint256"
        },
        {
          "internalType": "uint256",
          "name": "startingPrice",
          "type": "uint256"
        },
        {
          "internalType": "uint256",
          "name": "currentBid",
          "type": "uint256"
        },
        {
          "internalType": "address",
          "name": "highestBidder",
          "type": "address"
        },
        {
          "internalType": "uint256",
          "name": "endTime",
          "type": "uint256"
        },
        {
          "internalType": "bool",
          "name": "isActive",
          "type": "bool"
        }
      ],
      "stateMutability": "view",
      "type": "function"
    },
    {
      "inputs": [
        {
          "internalType": "uint256",
          "name": "tokenId",
          "type": "uint256"
        }
      ],
      "name": "buyListing",
      "outputs": [],
      "stateMutability": "nonpayable",
      "type": "function"
    },
    {
      "inputs": [
        {
          "internalType": "uint256",
          "name": "tokenId",
          "type": "uint256"
        }
      ],
      "name": "cancelListing",
      "outputs": [],
      "stateMutability": "nonpayable",
      "type": "function"
    },
    {
      "inputs": [
        {
          "internalType": "uint256",
          "name": "tokenId",
          "type": "uint256"
        },
        {
          "internalType": "uint256",
          "name": "startingPrice",
          "type": "uint256"
        },
        {
          "internalType": "uint256",
          "name": "duration",
          "type": "uint256"
        }
      ],
      "name": "createAuction",
      "outputs": [],
      "stateMutability": "nonpayable",
      "type": "function"
    },
    {
      "inputs": [
        {
          "internalType": "uint256",
          "name": "tokenId",
          "type": "uint256"
        },
        {
          "internalType": "uint256",
          "name": "price",
          "type": "uint256"
        }
      ],
      "name": "createListing",
      "outputs": [],
      "stateMutability": "nonpayable",
      "type": "function"
    },
    {
      "inputs": [
        {
          "internalType": "uint256",
          "name": "tokenId",
          "type": "uint256"
        }
      ],
      "name": "endAuction",
      "outputs": [],
      "stateMutability": "nonpayable",
      "type": "function"
    },
    {
      "inputs": [],
      "name": "feeRate",
      "outputs": [
        {
          "internalType": "uint256",
          "name": "",
          "type": "uint256"
        }
      ],
      "stateMutability": "view",
      "type": "function"
    },
    {
      "inputs": [],
      "name": "gameToken",
      "outputs": [
        {
          "internalType": "contract GameToken",
          "name": "",
          "type": "address"
        }
      ],
      "stateMutability": "view",
      "type": "function"
    },
    {
      "inputs": [
        {
          "internalType": "uint256",
          "name": "tokenId",
          "type": "uint256"
        }
      ],
      "name": "getAuction",
      "outputs": [
        {
          "components": [
            {
              "internalType": "address",
              "name": "seller",
              "type": "address"
            },
            {
              "internalType": "uint256",
              "name": "tokenId",
              "type": "uint256"
            },
            {
              "internalType": "uint256",
              "name": "startingPrice",
              "type": "uint256"
            },
            {
              "internalType": "uint256",
              "name": "currentBid",
              "type": "uint256"
            },
            {
              "internalType": "address",
              "name": "highestBidder",
              "type": "address"
            },
            {
              "internalType": "uint256",
              "name": "endTime",
              "type": "uint256"
            },
            {
              "internalType": "bool",
              "name": "isActive",
              "type": "bool"
            }
          ],
          "internalType": "struct Marketplace.Auction",
          "name": "",
          "type": "tuple"
        }
      ],
      "stateMutability": "view",
      "type": "function"
    },
    {
      "inputs": [
        {
          "internalType": "uint256",
          "name": "tokenId",
          "type": "uint256"
        }
      ],
      "name": "getListing",
      "outputs": [
        {
          "components": [
            {
              "internalType": "address",
              "name": "seller",
              "type": "address"
            },
            {
              "internalType": "uint256",
              "name": "tokenId",
              "type": "uint256"
            },
            {
              "internalType": "uint256",
              "name": "price",
              "type": "uint256"
            },
            {
              "internalType": "uint256",
              "name": "listingTime",
              "type": "uint256"
            },
            {
              "internalType": "bool",
              "name": "isActive",
              "type": "bool"
            }
          ],
          "internalType": "struct Marketplace.Listing",
          "name": "",
          "type": "tuple"
        }
      ],
      "stateMutability": "view",
      "type": "function"
    },
    {
      "inputs": [
        {
          "internalType": "uint256",
          "name": "",
          "type": "uint256"
        }
      ],
      "name": "listings",
      "outputs": [
        {
          "internalType": "address",
          "name": "seller",
          "type": "address"
        },
        {
          "internalType": "uint256",
          "name": "tokenId",
          "type": "uint256"
        },
        {
          "internalType": "uint256",
          "name": "price",
          "type": "uint256"
        },
        {
          "internalType": "uint256",
          "name": "listingTime",
          "type": "uint256"
        },
        {
          "internalType": "bool",
          "name": "isActive",
          "type": "bool"
        }
      ],
      "stateMutability": "view",
      "type": "function"
    },
    {
      "inputs": [],
      "name": "owner",
      "outputs": [
        {
          "internalType": "address",
          "name": "",
          "type": "address"
        }
      ],
      "stateMutability": "view",
      "type": "function"
    },
    {
      "inputs": [],
      "name": "petsNFT",
      "outputs": [
        {
          "internalType": "contract BattlePetsNFT",
          "name": "",
          "type": "address"
        }
      ],
      "stateMutability": "view",
      "type": "function"
    },
    {
      "inputs": [
        {
          "internalType": "uint256",
          "name": "tokenId",
          "type": "uint256"
        }
      ],
      "name": "placeBid",
      "outputs": [],
      "stateMutability": "nonpayable",
      "type": "function"
    },
    {
      "inputs": [],
      "name": "renounceOwnership",
      "outputs": [],
      "stateMutability": "nonpayable",
      "type": "function"
    },
    {
      "inputs": [
        {
          "internalType": "uint256",
          "name": "_feeRate",
          "type": "uint256"
        }
      ],
      "name": "setFeeRate",
      "outputs": [],
      "stateMutability": "nonpayable",
      "type": "function"
    },
    {
      "inputs": [
        {
          "internalType": "address",
          "name": "newOwner",
          "type": "address"
        }
      ],
      "name": "transferOwnership",
      "outputs": [],
      "stateMutability": "nonpayable",
      "type": "function"
    },
    {
      "inputs": [],
      "name": "withdrawFees",
      "outputs": [],
      "stateMutability": "nonpayable",
      "type": "function"
    }
  ],
  "bytecode": "0x608060405260c86004553480156200001657600080fd5b5060405162001cd938038062001cd98339810160408190526200003991620000e7565b62000044336200007a565b60018055600280546001600160a01b039384166001600160a01b031991821617909155600380549290931691161790556200011f565b600080546001600160a01b038381166001600160a01b0319831681178455604051919092169283917f8be0079c531659141344cd1fd0a4f28419497f9722a3daafe3b4186f6b6457e09190a35050565b80516001600160a01b0381168114620000e257600080fd5b919050565b60008060408385031215620000fb57600080fd5b6200010683620000ca565b91506200011660208401620000ca565b90509250929050565b611baa806200012f6000396000f3fe608060405234801561001057600080fd5b50600436106101215760003560e01c80638da5cb5b116100ad578063c3dfdae611610071578063c3dfdae614610378578063cda4beef1461038b578063de74e57b1461039e578063e1f1c4a71461041c578063f2fde38b1461042557600080fd5b80638da5cb5b14610317578063978bbdb9146103285780639979ef451461033f578063a79123a914610352578063b9a2de3a1461036557600080fd5b8063476343ee116100f4578063476343ee146101dd5780634884f459146101e5578063571a26a0146101f8578063715018a61461029b57806378bd7935146102a357600080fd5b8063107a274a146101265780632c3593f51461018a578063305a67a8146101b557806345596e2e146101ca575b600080fd5b6101396101343660046119dd565b610438565b604051610181919081516001600160a01b0316815260208083015190820152604080830151908201526060808301519082015260809182015115159181019190915260a00190565b60405180910390f35b60025461019d906001600160a01b031681565b6040516001600160a01b039091168152602001610181565b6101c86101c33660046119dd565b6104d2565b005b6101c86101d83660046119dd565b61062f565b6101c861068e565b6101c86101f33660046119dd565b6107a3565b6102546102063660046119dd565b600660208190526000918252604090912080546001820154600283015460038401546004850154600586015495909601546001600160a01b0394851696939592949193909116919060ff1687565b604080516001600160a01b03988916815260208101979097528601949094526060850192909252909316608083015260a082019290925290151560c082015260e001610181565b6101c8610af7565b6102b66102b13660046119dd565b610b0b565b604051610181919081516001600160a01b0390811682526020808401519083015260408084015190830152606080840151908301526080808401519091169082015260a0828101519082015260c09182015115159181019190915260e00190565b6000546001600160a01b031661019d565b61033160045481565b604051908152602001610181565b6101c861034d3660046119dd565b610bd1565b6101c86103603660046119f6565b610f21565b6101c86103733660046119dd565b6111f0565b60035461019d906001600160a01b031681565b6101c8610399366004611a18565b6114cd565b6103e86103ac3660046119dd565b600560205260009081526040902080546001820154600283015460038401546004909401546001600160a01b0390931693919290919060ff1685565b604080516001600160a01b03909616865260208601949094529284019190915260608301521515608082015260a001610181565b61033161271081565b6101c8610433366004611a59565b611864565b6104756040518060a0016040528060006001600160a01b031681526020016000815260200160008152602001600081526020016000151581525090565b50600090815260056020908152604091829020825160a08101845281546001600160a01b031681526001820154928101929092526002810154928201929092526003820154606082015260049091015460ff161515608082015290565b6104da6118da565b6000818152600560205260409020600481015460ff166105335760405162461bcd60e51b815260206004820152600f60248201526e1cd1905cb1b2bc9711bcb5b31cb395608b1b60448201526064015b60405180910390fd5b80546001600160a01b031633146105845760405162461bcd60e51b8152602060048201526015602482015274e4b88de698afe68c82e58d95e5889be5bbbae8808560581b604482015260640161052a565b6004808201805460ff191690556002546040516323b872dd60e01b81526001600160a01b03909116916323b872dd916105c39130913391889101611a7d565b600060405180830381600087803b1580156105dd57600080fd5b505af11580156105f1573d6000803e3d6000fd5b50506040513392508491507f8e25282255ab31897df2b0456bb993ac7f84d376861aefd84901d2d63a7428a290600090a35061062c60018055565b50565b610637611933565b6103e88111156106895760405162461bcd60e51b815260206004820152601b60248201527fe6898be7bbade8b4b9e78e87e4b88de883bde8b685e8bf873130250000000000604482015260640161052a565b600455565b610696611933565b6003546040516370a0823160e01b81523060048201526000916001600160a01b0316906370a0823190602401602060405180830381865afa1580156106df573d6000803e3d6000fd5b505050506040513d601f19601f820116820180604052508101906107039190611aa1565b9050801561062c576003546001600160a01b031663a9059cbb61072e6000546001600160a01b031690565b6040516001600160e01b031960e084901b1681526001600160a01b039091166004820152602481018490526044016020604051808303816000875af115801561077b573d6000803e3d6000fd5b505050506040513d601f19601f8201168201806040525081019061079f9190611aba565b5050565b6107ab6118da565b6000818152600560205260409020600481015460ff166107ff5760405162461bcd60e51b815260206004820152600f60248201526e1cd1905cb1b2bc9711bcb5b31cb395608b1b604482015260640161052a565b80546001600160a01b031633036108585760405162461bcd60e51b815260206004820152601b60248201527fe4b88de883bde8b4ade4b9b0e887aae5b7b1e79a84e5aea0e789a90000000000604482015260640161052a565b60028101546003546040516370a0823160e01b81523360048201526001600160a01b03909116906370a0823190602401602060405180830381865afa1580156108a5573d6000803e3d6000fd5b505050506040513d601f19601f820116820180604052508101906108c99190611aa1565b10156109065760405162461bcd60e51b815260206004820152600c60248201526be4bba3e5b881e4b88de8b6b360a01b604482015260640161052a565b60035460028201546040516323b872dd60e01b81526001600160a01b03909216916323b872dd9161093d9133913091600401611a7d565b6020604051808303816000875af115801561095c573d6000803e3d6000fd5b505050506040513d601f19601f820116820180604052508101906109809190611aba565b50600061271060045483600201546109989190611af2565b6109a29190611b0f565b905060008183600201546109b69190611b31565b600354845460405163a9059cbb60e01b81526001600160a01b03918216600482015260248101849052929350169063a9059cbb906044016020604051808303816000875af1158015610a0c573d6000803e3d6000fd5b505050506040513d601f19601f82011682018060405250810190610a309190611aba565b506002546040516323b872dd60e01b81526001600160a01b03909116906323b872dd90610a6590309033908990600401611a7d565b600060405180830381600087803b158015610a7f57600080fd5b505af1158015610a93573d6000803e3d6000fd5b5050505060048301805460ff191690558254600284015460405190815233916001600160a01b03169086907f390181b94203e6a571a4a2125c19b547e2eea81bec83cbee4d3911cfcee6d9fa9060200160405180910390a450505061062c60018055565b610aff611933565b610b09600061198d565b565b610b5f6040518060e0016040528060006001600160a01b0316815260200160008152602001600081526020016000815260200160006001600160a01b03168152602001600081526020016000151581525090565b50600090815260066020818152604092839020835160e08101855281546001600160a01b0390811682526001830154938201939093526002820154948101949094526003810154606085015260048101549091166080840152600581015460a0840152015460ff16151560c082015290565b610bd96118da565b60008181526006602081905260409091209081015460ff16610c2f5760405162461bcd60e51b815260206004820152600f60248201526e1cd171bcb1b2dc9711bcb5b31cb395608b1b604482015260640161052a565b80600501544210610c745760405162461bcd60e51b815260206004820152600f60248201526ee68b8de58d96e5b7b2e7bb93e69d9f60881b604482015260640161052a565b80546001600160a01b03163303610cc25760405162461bcd60e51b8152602060048201526012602482015271e58d96e5aeb6e4b88de883bde587bae4bbb760701b604482015260640161052a565b60008160030154600014610d015760648260030154600a610ce39190611af2565b610ced9190611b0f565b8260030154610cfc9190611b44565b610d07565b81600201545b6003546040516370a0823160e01b815233600482015291925082916001600160a01b03909116906370a0823190602401602060405180830381865afa158015610d54573d6000803e3d6000fd5b505050506040513d601f19601f82011682018060405250810190610d789190611aa1565b1015610db55760405162461bcd60e51b815260206004820152600c60248201526be4bba3e5b881e4b88de8b6b360a01b604482015260640161052a565b60048201546001600160a01b031615610e4b57600380546004848101549285015460405163a9059cbb60e01b81526001600160a01b0394851692810192909252602482015291169063a9059cbb906044016020604051808303816000875af1158015610e25573d6000803e3d6000fd5b505050506040513d601f19601f82011682018060405250810190610e499190611aba565b505b6003546040516323b872dd60e01b81526001600160a01b03909116906323b872dd90610e7f90339030908690600401611a7d565b6020604051808303816000875af1158015610e9e573d6000803e3d6000fd5b505050506040513d601f19601f82011682018060405250810190610ec29190611aba565b50600382018190556004820180546001600160a01b0319163390811790915560405182815284907f0e54eff26401bf69b81b26f60bd85ef47f5d85275c1d268d84f68d6897431c479060200160405180910390a3505061062c60018055565b6002546040516331a9108f60e11b81526004810184905233916001600160a01b031690636352211e90602401602060405180830381865afa158015610f6a573d6000803e3d6000fd5b505050506040513d601f19601f82011682018060405250810190610f8e9190611b57565b6001600160a01b031614610fd95760405162461bcd60e51b8152602060048201526012602482015271725c46f34c57f2d75073c4d4f25c5df25d5d60711b604482015260640161052a565b6000811161101f5760405162461bcd60e51b81526020600482015260136024820152720e4bbb7e6a0bce5bf85e9a1bbe5a4a7e4ba8e3606c1b604482015260640161052a565b60008281526005602052604090206004015460ff16156110795760405162461bcd60e51b8152602060048201526015602482015274e5aea0e789a9e5b7b2e59ca8e68c82e58d95e4b8ad60581b604482015260640161052a565b6000828152600660208190526040909120015460ff16156110d45760405162461bcd60e51b8152602060048201526015602482015274e5aea0e789a9e5b7b2e59ca8e68b8de58d96e4b8ad60581b604482015260640161052a565b6002546040516323b872dd60e01b81526001600160a01b03909116906323b872dd9061110890339030908790600401611a7d565b600060405180830381600087803b15801561112257600080fd5b505af1158015611136573d6000803e3d6000fd5b50506040805160a081018252338082526020808301888152838501888152426060860190815260016080870181815260008d815260058752899020975188546001600160a01b0319166001600160a01b0390911617885593519087015590516002860155516003850155516004909301805460ff19169315159390931790925591518581529193508592507f9adf89188ff96bbe0e772b6a9345d935a240c2bd656be8db63db0d091e92cb9d910160405180910390a35050565b6111f86118da565b60008181526006602081905260409091209081015460ff1661124e5760405162461bcd60e51b815260206004820152600f60248201526e1cd171bcb1b2dc9711bcb5b31cb395608b1b604482015260640161052a565b80600501544210156112945760405162461bcd60e51b815260206004820152600f60248201526ee68b8de58d96e69caae7bb93e69d9f60881b604482015260640161052a565b60068101805460ff1916905560048101546001600160a01b03161561142057600061271060045483600301546112ca9190611af2565b6112d49190611b0f565b905060008183600301546112e89190611b31565b600354845460405163a9059cbb60e01b81526001600160a01b03918216600482015260248101849052929350169063a9059cbb906044016020604051808303816000875af115801561133e573d6000803e3d6000fd5b505050506040513d601f19601f820116820180604052508101906113629190611aba565b506002546004808501546040516323b872dd60e01b81526001600160a01b03938416936323b872dd9361139c9330939216918a9101611a7d565b600060405180830381600087803b1580156113b657600080fd5b505af11580156113ca573d6000803e3d6000fd5b50505050600483015460038401546040519081526001600160a01b039091169085907fd2aa34a4fdbbc6dff6a3e56f46e0f3ae2a31d7785ff3487aa5c95c642acea5019060200160405180910390a350506114c3565b60025481546040516323b872dd60e01b81526001600160a01b03928316926323b872dd92611458923092909116908790600401611a7d565b600060405180830381600087803b15801561147257600080fd5b505af1158015611486573d6000803e3d6000fd5b5050604051600080825292508491507fd2aa34a4fdbbc6dff6a3e56f46e0f3ae2a31d7785ff3487aa5c95c642acea5019060200160405180910390a35b5061062c60018055565b6002546040516331a9108f60e11b81526004810185905233916001600160a01b031690636352211e90602401602060405180830381865afa158015611516573d6000803e3d6000fd5b505050506040513d601f19601f8201168201806040525081019061153a9190611b57565b6001600160a01b0316146115855760405162461bcd60e51b8152602060048201526012602482015271725c46f34c57f2d75073c4d4f25c5df25d5d60711b604482015260640161052a565b600082116115ce5760405162461bcd60e51b81526020600482015260166024820152750e8b5b7e68b8de4bbb7e5bf85e9a1bbe5a4a7e4ba8e360541b604482015260640161052a565b6000811180156115e1575062093a808111155b6116375760405162461bcd60e51b815260206004820152602160248201527fe68b8de58d96e697b6e995bfe5bf85e9a1bbe59ca8312d37e5a4a9e4b98be9976044820152602d60fa1b606482015260840161052a565b60008381526005602052604090206004015460ff16156116915760405162461bcd60e51b8152602060048201526015602482015274e5aea0e789a9e5b7b2e59ca8e68c82e58d95e4b8ad60581b604482015260640161052a565b6000838152600660208190526040909120015460ff16156116ec5760405162461bcd60e51b8152602060048201526015602482015274e5aea0e789a9e5b7b2e59ca8e68b8de58d96e4b8ad60581b604482015260640161052a565b6002546040516323b872dd60e01b81526001600160a01b03909116906323b872dd9061172090339030908890600401611a7d565b600060405180830381600087803b15801561173a57600080fd5b505af115801561174e573d6000803e3d6000fd5b50506040805160e08101825233815260208101879052908101859052600060608201819052608082015291505060a081016117898342611b44565b81526001602091820181905260008681526006808452604091829020855181546001600160a01b03199081166001600160a01b03928316178355958701519482019490945591850151600283015560608501516003830155608085015160048301805490951693169290921790925560a0830151600583015560c0909201519101805460ff191691151591909117905533837fc9050d42180a61cb0d9ebb8ad118b62fe6eab12cf12ff752c4a0cc7da9ddf627846118478542611b44565b6040805192835260208301919091520160405180910390a3505050565b61186c611933565b6001600160a01b0381166118d15760405162461bcd60e51b815260206004820152602660248201527f4f776e61626c653a206e6577206f776e657220697320746865207a65726f206160448201526564647265737360d01b606482015260840161052a565b61062c8161198d565b60026001540361192c5760405162461bcd60e51b815260206004820152601f60248201527f5265656e7472616e637947756172643a207265656e7472616e742063616c6c00604482015260640161052a565b6002600155565b6000546001600160a01b03163314610b095760405162461bcd60e51b815260206004820181905260248201527f4f776e61626c653a2063616c6c6572206973206e6f7420746865206f776e6572604482015260640161052a565b600080546001600160a01b038381166001600160a01b0319831681178455604051919092169283917f8be0079c531659141344cd1fd0a4f28419497f9722a3daafe3b4186f6b6457e09190a35050565b6000602082840312156119ef57600080fd5b5035919050565b60008060408385031215611a0957600080fd5b50508035926020909101359150565b600080600060608486031215611a2d57600080fd5b505081359360208301359350604090920135919050565b6001600160a01b038116811461062c57600080fd5b600060208284031215611a6b57600080fd5b8135611a7681611a44565b9392505050565b6001600160a01b039384168152919092166020820152604081019190915260600190565b600060208284031215611ab357600080fd5b5051919050565b600060208284031215611acc57600080fd5b81518015158114611a7657600080fd5b634e487b7160e01b600052601160045260246000fd5b8082028115828204841417611b0957611b09611adc565b92915050565b600082611b2c57634e487b7160e01b600052601260045260246000fd5b500490565b81810381811115611b0957611b09611adc565b80820180821115611b0957611b09611adc565b600060208284031215611b6957600080fd5b8151611a7681611a4456fea2646970667358221220ee53983d850abea900b4fc6afa1fed75d08655996f533d6d61fa35823d30656e64736f6c63430008140033",
  "linkReferences": {},
  "deployedLinkReferences": {}
}